S01C00007278353830382D70726F2D6469766572736974792E73726563BB
S11300000C9487090C94AF090C94AF090C94AF09B4
S11300100C94AF090C94AF090C94AF090C94AF097C
S11300200C94AF090C94AF090C94AF090C94AF096C
S11300300C94AF090C94AF090C94AF090C94AF095C
S11300400C94081A0C94AF090C94AF090C94AF09E2
S11300500C94AF090C94AF090C94AF090C94AF093C
S11300600C944E300C94AF092724201C1915120E41
S11300701013171A1E2125280D0B0A082B2C2E2FBE
S11300801114181B1F222629090C0F161D232A2DB3
S1130090000102030405060728292A2B2C2D2E2FE4
S11300A01320121121100722081806091905230A22
S11300B01A040B1B03240C1C020D1D25010E1E002B
S11300C00F1F26141527161700010203040506073F
S11300D008090A0B0C0D0E0F2021222324252627A4
S11300E028292A2B2C2D2E2F88898A8B8C8D8E8F54
S11300F058595A5B5C5D5E5FE916D516C116AD169C
S11301009916851671165D16651678168B169E1649
S1130110B116C416D716EA164916351621160D1649
S1130120FD161117251739176C1680169416A81684
S1130130BC16D016E416F8161A163F16641689165D
S1130140AE16D316F8161D17F21417153C156115C3
S11301508615AB15D015F515052A9B2991298729F4
S11301601D29132909299F2803290C2916291F2928
S1130170892992299C29052A95288B2881281728C2
S11301800F2A192A832A8D2A062910291A29842933
S11301908E299829022A0C2A1D289028022915291B
S11301A087299A290C2A1F2A09261C268E2601270C
S11301B01327862798270B28090000000001000058
S11301C05A00DC00005A00DC0053657474696E67E1
S11301D0730042616E64205363616E005365617203
S11301E06368000000000000000000000FF0000041
S11301F00FF000000FF000000FF000071FF8E007F9
S1130200FFFFE00FFFFFF00FFFFFF01FFFFFF81FDE
S1130210FFFFF81FFC3FF81FF81FF807F00FE0037B
S1130220F00FC003F00FC007F00FE01FF81FF81F16
S1130230FC3FF81FFFFFF81FFFFFF80FFFFFF00F51
S1130240FFFFF007FFFFE0071FF8E0000FF00000DA
S11302500FF000000FF000000FF00000000000009D
S1130260000000000000000000000000000000008A
S1130270000000003FFC0003FFFFC007FFFFE03F5A
S1130280FFFFFC7FFE7FFEFFFE7FFFFFFE7FFF7F01
S1130290FFFFFE7FFFFFFE1FFE7FF81FFE7FF80FAC
S11302A0FE7FF007FE7FE003FE7FC001FE7F80013A
S11302B0FE7F8000FE7F00007FFE00003FFC000008
S11302C01FF800001FF8000007E0000007E000002E
S11302D003C00000018000000000000000000000D6
S11302E0000000000000000000000000000000000A
S11302F000000000FF800001FFE00003FFF00007A2
S1130300E3F0000F80F8000F0078000F003C000EAF
S1130310003C000E003C000E003C000F003C000FAF
S11303200078000F80F80007C1F80007FFF8000309
S1130330FFFC0000FFFE00003F1F0000000F8000D4
S11303400007C0000003E0000001F0000000E0002E
S11303500000400000000000000000000000000059
S11303600000000000000000000000000000000089
S11303700000000000000000000000000000000079
S11303800000000000000000000000000000000069
S11303900000000000000000000000000000000059
S11303A00000000000000000000000000000000049
S11303B00000000000000000000000FC000000003D
S11303C03F00000000000000000000FC00000000EE
S11303D03F00000000000000000000FC00000000DE
S11303E03F00000000000000000000FC00000000CE
S11303F03F00000000000000000000FC00000000BE
S11304003F00000000000000000000780000000031
S11304101E00000000000000000000780000000042
S11304201E00000000000000000000780000000032
S11304301E00000000000000000000780000000022
S11304401E00000000000000000000780000000012
S11304501E00000000000000000000780000000002
S11304601E000000000000000000007800000000F2
S11304701E0000FFFFFBF80FDFFFFF7FFFFBFFFF06
S1130480DFFFFFFFFFFBFC1FDFFFFF7FFFFBFFFF23
S1130490DFFFFFFFFFF9FC1FDFFFFF7FFFFBFFFF15
S11304A0DFFFFFFFFFF9FE3F9FFFFF7FFFFBFFFF23
S11304B0DFFFFFFFFFF8FE3F9FFFFF7FFFFBFFFF14
S11304C0DFFFFFFFFFF8FF7F1FFFFF7FFFFBFFFF43
S11304D0DFFFFFFC03F87F7F1F80007F01FBF00F2D
S11304E0DFC03FFC03F87FFE1F80007F01FBF00F9D
S11304F0DFC03FFC03F83FFE1F80007F01FBF00FCD
S1130500DFC03FFC03F83FFC1F80007F01FBF00FBE
S1130510DFC03FFC03F81FFC1F80007F01FBF00FCE
S1130520DFC03FFC03F81FF81F80007F01FBF00FC2
S1130530DFC03FFFFFF80FF81FFFFF7FFFFBF00F47
S1130540DFFFFFFFFFF80FF01FFFFF7FFFFBF00F40
S1130550DFFFFFFFFFF807F01FFFFF7FFFFBF00F38
S1130560DFFFFFFFFFF807F01FFFFF7FFFFBF00F28
S1130570DFFFFFFFFFF80FF01FFFFF7FFFFBF00F10
S1130580DFFFFFFFFFF80FF81FFFFF7FFFFBF00FF8
S1130590DFFFFFFDFE001FF800003F7F01FBF00FAF
S11305A0DFC03FFCFE001FFC00003F7F01FBF00F9B
S11305B0DFC03FFC7F003FFC00003F7F01FBF00FEA
S11305C0DFC03FFC7F003FFE00003F7F01FBF00FD8
S11305D0DFC03FFC3F807E7E00003F7F01FBF00FC9
S11305E0DFC03FFC3FC07E7E00003F7F01FBF00F79
S11305F0DFC03FFC1FC0FE7F1FFFFF7FFFFBFFFF2D
S1130600DFFFFFFC0FE0FE7F1FFFFF7FFFFBFFFF0D
S1130610DFFFFFFC0FE1FC3F9FFFFF7FFFFBFFFFBE
S1130620DFFFFFFC07F1FC3F9FFFFF7FFFFBFFFFA6
S1130630DFFFFFFC07F3F81FDFFFFF7FFFFBFFFF78
S1130640DFFFFFFC03FBF81FDFFFFF7FFFFBFFFF64
S1130650DFFFFF00000000000000000000000000B9
S11306600000000000000000000000000000000086
S11306700000000000000000000000000000000076
S11306800000000000000000000000000000000066
S11306900000000000000000000000000000000056
S11306A00000000000000000000000000000000046
S11306B00000000000000000000000000000000036
S11306C00000000000000000000000000000000026
S11306D00000000000000000000000000000000016
S11306E00000000000000000000000000000000006
S11306F000000000000000000000000000000000F6
S113070000000000000000000000000000000000E5
S113071000000000000000000000000000000000D5
S113072000000000000000000000000000000000C5
S113073000000000000000000000000000000000B5
S113074000000000000000000000000000000000A5
S11307500000000000000000000000000000000095
S113076000000000001980198019801FB81F881923
S11307709019A019B800001008300C7E7E300C10BF
S113078008000000000000339C4A527B9C4A524BF4
S1130790920000000000001008300C7E7E300C1027
S11307A0080000000060C071C07BC07FD87FC46EA9
S11307B0C264C260C060C060C0080C0812041E039A
S11307C012000000001E003F00738061987F847F48
S11307D08261826180618061A20836082A04220352
S11307E0220000410042005072657373206D6F64F3
S11307F06520666F720A525353492063616C6962C3
S1130800726174696F6E005072657373204D4F444A
S11308104520746F20736176652E004D61783A200F
S1130820004D696E3A2000416C6C20646F6E652146
S113083000342F340A5363616E6E696E6720666FED
S11308407220686967686573740A525353492E2E7F
S11308502E005072657373204D4F444520776865B0
S11308606E2072656164792E00332F340A547572D8
S11308706E206F6E20796F7572205654582E003298
S11308802F340A5363616E6E696E6720666F72203F
S11308906C6F776573740A525353492E2E2E005091
S11308A072657373204D4F4445207768656E2072DE
S11308B0656164792E0052656D6F7665205258200B
S11308C0616E74656E6E61732E00312F340A547537
S11308D0726E206F666620616C6C20565458732EBD
S11308E000000000080002010000030407000000EB
S11308F000000000000102040810204080010204EE
S11309000810200102040810200404040404040450
S113091004020202020202030303030303000000B1
S11309200023002600290000000000250028002BD9
S11309300000000000240027002A0000000000003E
S11309403E5B4F5B3E3E6B4F6B3E1C3E7C3E1C1839
S11309503C7E3C181C577D571C1C5E7F5E1C001897
S11309603C1800FFE7C3E7FF0018241800FFE7DB8B
S1130970E7FF30483A060E2629792926407F0505E7
S113098007407F05253F5A3CE73C5A7F3E1C1C0824
S1130990081C1C3E7F14227F22145F5F005F5F06E9
S11309A0097F017F006689956A606060606094A237
S11309B0FFA29408047E040810207E201008082A50
S11309C01C08081C2A08081E101010100C1E0C1EEF
S11309D00C30383E3830060E3E0E06000000000093
S11309E000005F00000007000700147F147F142438
S11309F02A7F2A12231308646236495620500008BD
S1130A00070300001C2241000041221C002A1C7F15
S1130A101C2A08083E0808008070300008080808EE
S1130A2008000060600020100804023E5149453E61
S1130A3000427F400072494949462141494D3318DB
S1130A4014127F1027454545393C4A494931412113
S1130A501109073649494936464949291E000014F7
S1130A60000000403400000008142241141414143F
S1130A7014004122140802015909063E415D594EF1
S1130A807C1211127C7F494949363E414141227F03
S1130A904141413E7F494949417F090909013E419C
S1130AA04151737F0808087F00417F410020404185
S1130AB03F017F081422417F404040407F021C02D6
S1130AC07F7F0408107F3E4141413E7F09090906AA
S1130AD03E4151215E7F091929462649494932037D
S1130AE0017F01033F4040403F1F2040201F3F4003
S1130AF038403F63140814630304780403615949BC
S1130B004D43007F4141410204081020004141410E
S1130B107F040201020440404040400003070800F3
S1130B2020545478407F2844443838444444283876
S1130B304444287F385454541800087E090218A4E9
S1130B40A49C787F0804047800447D400020404041
S1130B503D007F1028440000417F40007C0478045D
S1130B60787C080404783844444438FC1824241855
S1130B7018242418FC7C08040408485454542404FD
S1130B80043F44243C4040207C1C2040201C3C402A
S1130B9030403C44281028444C9090907C44645449
S1130BA04C4400083641000000770000004136083C
S1130BB00002010204023C2623263C1EA1A161126C
S1130BC03A4040207A385454555921555579412298
S1130BD054547842215554784020545579400C1E81
S1130BE0527212395555555939545454593955542A
S1130BF054580000457C410002457D420001457C7B
S1130C00407D1211127DF0282528F07C54554500B2
S1130C102054547C547C0A097F4932494949323A68
S1130C204444443A324A4848303A4141217A3A42AB
S1130C30402078009DA0A07D3D4242423D3D404081
S1130C40403D3C24FF2424487E4943662B2FFC2F3F
S1130C502BFF0929F620C0887E09032054547941CA
S1130C600000447D413048484A32384040227A00EE
S1130C707A0A0A727D0D19317D2629292F28262901
S1130C8029292630484D4020380808080808080853
S1130C9008382F10C8ACBA2F102834FA00007B0093
S1130CA00008142A142222142A1408550055005549
S1130CB0AA55AA55AAFF55FF55FF000000FF0010D2
S1130CC01010FF00141414FF001010FF00FF101088
S1130CD0F010F0141414FC001414F700FF0000FFCB
S1130CE000FF1414F404FC141417101F10101F1028
S1130CF01F1414141F00101010F0000000001F1027
S1130D001010101F10101010F010000000FF101031
S1130D1010101010101010FF10000000FF1400003D
S1130D20FF00FF00001F10170000FC04F414141748
S1130D3010171414F404F40000FF00F7141414142E
S1130D40141414F700F7141414171410101F101FA0
S1130D50141414F4141010F010F000001F101F00ED
S1130D6000001F14000000FC140000F010F010102C
S1130D70FF10FF141414FF141010101F00000000C3
S1130D80F010FFFFFFFFFFF0F0F0F0F0FFFFFF00B7
S1130D9000000000FFFF0F0F0F0F0F3844443844CA
S1130DA0FC4A4A4A347E02020606027E027E02633E
S1130DB0554941633844443C04407E201E200602C9
S1130DC07E020299A5E7A5991C2A492A1C4C7201A6
S1130DD0724C304A4D4D303048784830BC625A46E7
S1130DE03D3E494949007E0101017E2A2A2A2A2AD8
S1130DF044445F444440514A444040444A514000C2
S1130E0000FF0103E080FF000008086B6B08361246
S1130E10362436060F090F060000181800000010CB
S1130E2010003040FF0101001F01011E00191D17B1
S1130E3012003C3C3C3C00000000002200FF21006A
S1130E40000103070F1F3F7F0080C0E0F0F8FCFEA5
S1130E50DB40A4A62EAF2000A1C8D300408DAED5A0
S1130E6080A80000600000000000000000000000F6
S1130E70000000E00000000000000000000000008E
S1130E800001E0000000000000000000000000007D
S1130E9001F000000000000000000000000000035A
S1130EA0F00000000000000000000000000007F057
S1130EB00000000000000000000000000007F8002F
S1130EC00000000000000000000000000FF8000017
S1130ED00003C0007E000001E0007F0FF800000066
S1130EE003C000FE000001E000FFEFF80000000373
S1130EF0C000FE000001E000FFFFF800000003C096
S1130F0000F00000000F007FFE7FC0000003C0005F
S1130F10F00000000F003FFE7FF83FF1FBCFFCFE26
S1130F20F3BC3DEFE01FFE7FFF7FFBFFDFFEFEFF14
S1130F30BC3DEFE01FC6FFFF7FFBFFDFFEFEFFBCF3
S1130F403DEFE00FE3C7FE787BC3DE1EF0FFBC3D40
S1130F50EF0007FF87FC787BC3DE1EF0F83C3DEF13
S1130F600001FFFFF0007BC3C01EF0F03C3DEF002A
S1130F7001F37FE03FFBC3CFFEF0F03C3DEF000305
S1130F80E33F807FFBC3DFFEF0F03C3DEF0007E76B
S1130F903C00787BC3DE1EF0F03C3DEF0007FFBE53
S1130FA000787BC3DE1EF0F03C3DEF0007FFFE003F
S1130FB0787BC3DE1EF0F03C3DEF000FFFFE007FA8
S1130FC0FBFFDFFEF0F03FFDEFE00FFFFF007FFBD4
S1130FD0FFDFFEF0F03FFDEFE00FF9FF003E79F98F
S1130FE0CF9EF0F01F3DE7E01FF1FF00000000007E
S1130FF0000000000000001F80FF007FFFFFFFFFD4
S1131000FFFFFFFFFFE01C007F007FFFFFFFFEB438
S11310106D888D18E000001F007FFFFFFFFE95AD77
S11310207DB577E000000F007FFFFFFFFEA5AD9DBB
S11310308D19E0000006007FFFFFFFFEB5ADEDB5A2
S11310407EE00000000000018000000000000000BD
S11310500000038000000000000000000007C00042
S1131060000000000000000007C0000000000000B5
S11310700000000FC00000000000000000001FE09E
S11310800000000000000000001FE000000000005D
S1131090000000003FE00000000000000000003FEE
S11310A0F00000000000000000007FF000000000DD
S11310B00000001FF87FF0000000000000003FFE69
S11310C07FF0000000000000003FFF7FF000000000
S11310D0000000001FFFFBE0000000000000000F04
S11310E0FFF9FFC00000000000000FFFF9FFF80047
S11310F0000000000007FFF1FFFF000000000000F7
S113110003FC73FFFF80000000000001FE3FFFFFAF
S113111080000000000000FF1E0FFF000000000020
S113112000007FFE1FFC000000000000003FFFFFE6
S1131130F8000000000000000FDFFFE000000000E6
S11311400000001F19FFC0000000000000003F3C29
S1131150FF00000000000000007E7CF8000000009A
S1131160000000007FFE7C0000000000000000FF83
S1131170FFFC0000000000000000FFFFFE00000074
S11311800000000000FFFFFE00000000000000015E
S1131190FFEFFE0000000000000001FFCFFE000092
S11311A0000000000003FF07FE0000000000000034
S11311B003FC07FE0000000000000003F003FE0033
S11311C0000000000000018000FE0000000000009C
S11311D0000000007E000000000000000000003E4F
S11311E0000000000000000000000C0000000000EF
S11311F000078000FC000003C0000000078001FC21
S1131200000003C0000000078001FC000003C000D0
S11312100000078001E00000001E000000078001BC
S1131220E00000001E007FE3F79FF9FDE7787BDF15
S1131230C0FFF7FFBFFDFDFF787BDFC0FFF7FFBFF7
S1131240FDFDFF787BDFC0F0F787BC3DE1FF787BD5
S1131250DE00F0F787BC3DE1F0787BDE0000F78725
S1131260803DE1E0787BDE007FF7879FFDE1E07859
S11312707BDE00FFF787BFFDE1E0787BDE00F0F75F
S113128087BC3DE1E0787BDE00F0F787BC3DE1E020
S1131290787BDE00F0F787BC3DE1E0787BDE00FF81
S11312A0F7FFBFFDE1E07FFBDFC0FFF7FFBFFDE11C
S11312B0E07FFBDFC07CF3F39F3DE1E03E7BCFC0EA
S11312C00000000000000000000000FFFFFFFFFF1F
S11312D0FFFFFFFFFFC0FFFFFFFFFD68DB111A31B7
S11312E0C0FFFFFFFFFD2B5AFB6AEFC0FFFFFFFFAC
S11312F0FD4B5B3B1A33C0FFFFFFFFFD6B5BDB6AFB
S1131300FDC05D0C5D0D440FBB16922EC01611245A
S11313101FBECFEFD8E0DEBFCDBF11E0A0E0B1E04B
S1131320E8EFF6E602C005900D92A23DB107D9F7A9
S113133023E0A2EDB1E001C01D92A13DB207E1F7A7
S113134019E0C6E8D9E004C02197FE010E941D32CD
S1131350C138D107C9F70E9456190C946F330C9405
S113136000000F931F93CF93DF93182F062FC6ED22
S1131370D1E0E991F991309719F0602F812F099507
S113138081E0CE3DD807A9F7DF91CF911F910F914E
S11313900895CF92DF92EF92FF920F931F93CF9312
S11313A0DF93082FEB01842F0E94B61B11E0892BD9
S11313B009F010E08C81181731F00E94521A6883EA
S11313C079838A839B831C838D811817B1F10E94D2
S11313D0521AC880D980EA80FB80DC01CB018C19C9
S11313E09D09AE09BF0986399105A105B10528F10A
S11313F01D83CE80DF80E884F9840E94521A6E83B4
S11314007F83888799876093D2017093D3018093F7
S1131410D4019093D5012D81211112C0DC01CB019F
S11314208C199D09AE09BF09883C9105A105B10538
S113143020F560E0802F0E94B1098D81882321F17D
S11314400E94521ACE80DF80E884F984DC01CB014B
S11314508C199D09AE09BF09803D9740A105B105CE
S113146098F062E0802FDF91CF911F910F91FF9050
S1131470EF90DF90CF900C94B109883E9340A10582
S1131480B10510F461E0D6CFDF91CF911F910F9198
S1131490FF90EF90DF90CF90089542E06EED71E001
S11314A080E00E94C90944E068EE71E081E00E9496
S11314B0C90943E062EF71E082E00E94C90945E096
S11314C06CEF71E083E00C94C909E6EDF1E020E0F3
S11314D030E041915191452B41F4220F331FF90122
S11314E0EA52FE4F9183808308952F5F3F4F24304B
S11314F0310579F70895E82FF0E0EE0FFF1FE85A61
S1131500FE4F859194910895E82FF0E0EE0FFF1FB0
S1131510E850FF4F859194910895E82FF0E0E85347
S1131520FF4FE491A6E0B2E08E2F869586958695CE
S11315308F5B8C93E770EF5C1196EC931197129686
S11315401C921297CD010895E82FF0E0E856FF4F62
S113155084910895E82FF0E0E859FF4F84910895AD
S1131560FC01A9E0B2E090E08491882351F09F014E
S11315702F5F3F4F903329F0E491ED939F5FF90182
S1131580F3CFE92FF0E0E75FFD4F108289E092E0AE
S11315900895CF93C82F0E947B0A0E94DF0C80E439
S11315A092E00E946616C0938502CF910895882325
S11315B019F02EE04FE002C02FE04EE050E0FA01B7
S11315C0E75FF64F9491FA01EB50F74F4491E22F05
S11315D0F0E0EB50F74F2491E92FF0E0EE0FFF1FFE
S11315E0E95DF64FA591B491EC914E2BE22FE09575
S11315F0E423EC9380938602089580E492E00C94B3
S11316004716AF92BF92CF92DF92EF92FF920F9361
S11316101F93CF9384E10E94051B84E10E94051B64
S1131620909383028093820285E10E94051B85E1E9
S11316300E94051B9093680280936702E0909102D8
S1131640F090920200E010E020918F02309190021D
S113165040E050E0609182027091830280E090E06B
S11316601F921F921F92C4E6CF93A12CB12C650147
S11316700E94DF1B0F900F900F900F9097FD3EC0BC
S1131680E0909102F090920200E010E020918F022D
S11316903091900240E050E06091820270918302A8
S11316A080E090E01F921F921F92CF930E94DF1B55
S11316B00F900F900F900F9065367105810591057D
S11316C0FCF4E0909102F090920200E010E020918E
S11316D08F023091900240E050E06091820270915C
S11316E0830280E090E01F921F921F92CF930E948A
S11316F0DF1B0F900F900F900F9003C060E001C0AC
S113170064E660938402E0909602F090970200E011
S113171010E0209194023091950240E050E06091F5
S113172067027091680280E090E01F921F921F92FE
S1131730C4E6CF93A12CB12C65010E94DF1B0F904E
S11317400F900F900F9097FD3EC0E0909602F0909E
S1131750970200E010E0209194023091950240E05D
S113176050E0609167027091680280E090E01F92FF
S11317701F921F92CF930E94DF1B0F900F900F9028
S11317800F906536710581059105FCF4E090960291
S1131790F090970200E010E02091940230919502BD
S11317A040E050E0609167027091680280E090E050
S11317B01F921F921F92CF930E94DF1B0F900F90D6
S11317C00F900F9003C060E001C064E6609369026B
S11317D089E392E00E9447168823D1F0EAE6F2E01A
S11317E0AFE4B2E08181819311968C9111978D932E
S11317F082E0E138F807B1F7809184028093810296
S1131800809169028093660289E392E00E946616E1
S1131810CF911F910F91FF90EF90DF90CF90BF90E9
S1131820AF900895CF93C091860280919302811165
S11318302DC02091840280916902281B822F022EE0
S1131840000C990B97FF03C091958195910912168D
S113185024F0211104C09C2F03C090E001C091E04A
S1131860823078F080914E02981309C087E492E0A8
S11318700E944716882389F0C0914E020EC09093AF
S11318804E0287E492E00E94661607C0813021F080
S1131890823019F4C1E001C0C0E08C2FCF910C94C8
S11318A0D70A089580E492E00E944716882321F025
S11318B00E94010B0C94120C08958091860280936F
S11318C04E0265E070E087E492E00E94301669E120
S11318D070E080E492E00E94301662E370E089E3F5
S11318E092E00C943016CF93C82F60E08CE00E94F5
S11318F0871B81E090E00E94BF1A6C2F8AE00E944F
S1131900871B81E090E00E94BF1A61E08CE00E9496
S1131910871B81E090E00E94BF1A60E08CE00E9487
S1131920871B81E090E0CF910C94BF1A8F929F9215
S1131930AF92BF92CF92DF92EF92FF92CF93C82ED5
S11319404A015B0160E08BE00E94871B81E090E02C
S11319500E94BF1AD12CE12CF12CC4E08C2D817093
S11319600E94730CF694E794D794C794C150B1F7CE
S113197081E00E94730CC4E1882D81700E94730C75
S1131980B694A79497948794C150B1F761E08BE023
S11319900E94871B81E090E00E94BF1A60E08CE007
S11319A00E94871B60E08AE0CF91FF90EF90DF9068
S11319B0CF90BF90AF909F908F900C94871BAC01F9
S11319C060E070E081E00C94960CFF920F931F93FB
S11319D0CF93DF938C01C0E0D0E0F801F1908F0148
S11319E0CE010E945933F81621F06F2DCE010E94CA
S11319F061332196C131D10581F7DF91CF911F91D8
S1131A000F91FF900895CF93DF93209198022223A2
S1131A1091F0EC0189E992E00E944716882359F07D
S1131A201092980289E992E00E946616CE01DF9135
S1131A30CF910C94E50CDF91CF91089581E08093D0
S1131A4098020895CF93DF93EC0141E150E068EBF5
S1131A5071E00E944933CE01DF91CF910C94E50CE3
S1131A60EF92FF920F931F93CF93DF938C017C012E
S1131A70C0E0D0E0CE010E945933F70181937F0189
S1131A802196C131D105B1F7F80180819181A281FC
S1131A90B3810997A105B10549F0C801DF91CF9140
S1131AA01F910F91FF90EF900C94220DDF91CF9135
S1131AB01F910F91FF90EF90089568E873E189E911
S1131AC092E00C9430169091B002943039F0823048
S1131AD029F4623019F484E00C94720E089561E0E4
S1131AE08DE00E944B1B61E086E00E944B1B62E08C
S1131AF082E00E944B1B62E083E00E944B1B62E089
S1131B0084E00E944B1B62E085E00E944B1B61E075
S1131B108EE00E944B1B61E08FE00E944B1B62E051
S1131B2084E10E944B1B62E085E10E944B1B61E053
S1131B308BE00E944B1B61E08AE00E944B1B61E03A
S1131B408CE00E944B1B61E08BE00E94871B60E0ED
S1131B508CE00E94871B60E08AE00C94871B87E876
S1131B6092E00E94300D80918B020C94C90A0E946D
S1131B706F0D61E08DE00E94871B60E086E00E94AB
S1131B80871B0E94AF0D0E941F0E0E94510C0E94E1
S1131B907B1680E00E94D70A60E08DE00E94871BDC
S1131BA061E086E00E94871B83E69DE00E94650A4F
S1131BB081E00C94720E0F931F930E94520C0E94AA
S1131BC04D0A0E94230E0E94A01687E892E00E940C
S1131BD0030D8091B00282508230D0F00E94521ADC
S1131BE00091D2011091D3012091D4013091D501FB
S1131BF0DC01CB01801B910BA20BB30B8133954706
S1131C00A105B10528F083E01F910F910C94720E89
S1131C101F910F910895089508950895462FA09156
S1131C20B102B091B202109749F0ED91FC91119775
S1131C300284F385E02D682FCD01099408958EE088
S1131C409EE00C94650A8091B1029091B2020097D3
S1131C5009F447C0DC01ED91FC910680F781E02D89
S1131C6009958091A702811109C068E270E080EAB9
S1131C7092E00E94301681E08093A7028091B10225
S1131C809091B202892B69F18091B502882349F1C0
S1131C9080EA92E00E944716811101C00895809164
S1131CA0B302882369F08091B1029091B202DC0101
S1131CB0ED91FC910190F081E02D09951092B30211
S1131CC08091B1029091B202DC01ED91FC9102800D
S1131CD0F381E02D09951092B50280EA92E00C940C
S1131CE066160895CF93DF93C82F8091B102909127
S1131CF0B202009739F0DC01ED91FC910084F1858A
S1131D00E02D09958091B0028093AF02C093B00298
S1131D10C33009F453C0D0F4C13061F1C23009F0CA
S1131D2092C084E390E00E94651924E3EC011992C7
S1131D302A95E9F72BE031E0FC01318320833496C6
S1131D4020E3DF011D922A95E9F778C0C53009F434
S1131D506CC008F44DC0C63009F075C084E090E052
S1131D600E946519FC01128213828BE591E0918334
S1131D70808356C087E290E00E946519FC0187E2E7
S1131D80DF011D928A95E9F78BE391E091838083CB
S1131D90C3831782108611861286C387DF011C96BF
S1131DA080E1ED0119928A95E9F7178E168E11A23A
S1131DB010A212A213A2F58FE48F32C08AE090E041
S1131DC00E946519EC018AE0FE0111928A95E9F7F7
S1131DD02BE231E0DE012D933D93CD0168EB7BE0F6
S1131DE00E9430161986D093B202C093B1022FC05C
S1131DF08EE190E00E946519FC018EE1EF011992D9
S1131E008A95E9F7DF018BE191E08D939D9388E159
S1131E10ED0119928A95E9F7138E128E158E148EA0
S1131E20F093B202E093B10212C082E090E00E940B
S1131E3065192BE431E0FC01318320839093B202D5
S1131E408093B10204C01092B2021092B102809148
S1131E50B1029091B2020097A1F0DC01ED91FC91E6
S1131E600480F581E02D09958091B1029091B20230
S1131E70EC01E881F9810190F081E02DDF91CF91AF
S1131E800994DF91CF9108958091B0028093AF02BD
S1131E900895FC0112822091850223830895FC0198
S1131EA083810C94C90ACF93DF93EC010E94FD0A4D
S1131EB08823E9F08A8190E0FE01E80FF91F409140
S1131EC084022091690230E0240F311D3595279555
S1131ED02483019660E370E00E948B318A830E9420
S1131EE0A40A0E94C90ADF91CF910C94AF16DF9126
S1131EF0CF9108950F931F93CF93DF930E94AB1656
S1131F0001E010E028E330E040E050E060E070E001
S1131F1086EB92E00E94222C28E330E040E050E07F
S1131F206FE770E086EB92E00E94222C20E830E01C
S1131F3047E350E060E070E086EB92E00E94E12B22
S1131F402FE430E04FE350E068E170E086EB92E08C
S1131F500E94E12B29E030E047E350E068E170E0C3
S1131F6086EB92E00E94222C29E030E047E350E027
S1131F7067E670E086EB92E00E94222C61E086EB3B
S1131F8092E00E945B26C6EBD2E081E090E09B8B5E
S1131F908A8B998B888B1D861C8609E310E01F872A
S1131FA00E8780E00E94A40A0E94840A4AE050E05E
S1131FB0BC01CE010E94021A89E690E09D878C87BD
S1131FC01F870E878FE20E94A40A0E94840A4AE0B7
S1131FD050E0BC01CE010E94021ADF91CF911F9103
S1131FE00F910C94B316CF92EF92FF920F931F931D
S1131FF0CF93DF93EC0127E3C22E3EE7E32E00E00C
S113200021E044E660E304960E944F1701E010E0EB
S113201020E830E047E350E060E070E086EB92E0D7
S11320200E94E12B25E030E04CE450E069E370E0ED
S11320308AE190E00E943C178A812CE4829FC001CF
S1132040112460E370E00E948B316F5F262F30E033
S1132050EE24E394F12C05E010E049E350E06AE15A
S113206070E086EB92E00E94741DDF91CF911F9186
S11320700F91FF90EF90CF900C94B316CF93DF9312
S1132080EC012296CE010E94F51728E630E143EEDA
S113209052E06CED71E0CE010E94FB1725E630E1C1
S11320A043E652E062ED71E0CE010E94FB1722E6A6
S11320B030E143EE51E069EC71E0CE01DF91CF9164
S11320C00C94FB1785E00C94720E82E00C94720E53
S11320D081E00C94720E411112C0613041F018F08D
S11320E0623051F0089502960E94211803C00296AE
S11320F00E9413180C94AF1602960C942F1808958E
S1132100CF92DF92EF92FF920F931F93CF93DF93BF
S113211002960E943E18EC01888199810E94B00ABF
S1132120FC0101900020E9F731978F01081B190B7E
S113213062E086EB92E00E945B2681E090E090935F
S1132140C9028093C8029093C7028093C6022AEF03
S11321502003F0011124FF96F093C302E093C2021E
S11321608EE290E09093C5028093C40288819981A5
S11321700E94B00ABC0186EB92E00E94AA198C81ED
S11321809D81892BE1F020E230E040E250E067E0FD
S113219070E08FE290E00E943C172C813D81CC24BA
S11321A0C394D12C90E2E92EF12C00E210E047E038
S11321B050E06FE270E086EB92E00E94A522DF918E
S11321C0CF911F910F91FF90EF90DF90CF900895E2
S11321D0AF92BF92CF92DF92EF92FF920F931F9331
S11321E0CF93DF93EC010E94AB16CE010E948010C6
S11321F0AA24A394B12C91E2C92ED12C2FE7E22E6C
S1132200F12C05E210E02DE730E041E250E06BE70D
S113221070E086EB92E00E94C3203DE1C32ED12CF6
S113222009E110E02DE730E04DE150E06BE770E0AC
S113223086EB92E00E94C320DF91CF911F910F9112
S1132240FF90EF90DF90CF90BF90AF900C94B316B7
S1132250CF93DF93EC0122E130E040E850E06EE2FE
S113226070E080E090E00E943C17CE010E94801054
S1132270DF91CF910C94B31621E0FC0121870895DE
S1132280DC01ED91FC910190F081E02D09940F9314
S11322901F93CF93DF93EC018C010E5F1F4FC80196
S11322A00E944716882369F0C8010E946616998522
S11322B081E089278987DF91CF911F910F910C9439
S11322C0AF16DF91CF911F910F9108958091AF02C6
S11322D00C94720ECF92DF92EF92FF920F931F93A2
S11322E0CF93DF93EC010E94AB168985882399F084
S11322F0CC24C394D12C90E4E92EF12C00E810E016
S113230023E633E040E050E060E070E086EB92E0EA
S11323100E94A52240C081E090E09093C90280937E
S1132320C8029093C7028093C60266E086EB92E0EF
S11323300E945B268EE190E09093C3028093C202D8
S113234082E090E09093C5028093C402809185025C
S11323500E948D0ABC0186EB92E00E94AA1962E0F9
S113236086EB92E00E945B2686E290E09093C302A3
S11323708093C20280E390E09093C5028093C402EC
S1132380809185020E94840A4AE050E0BC0186EBF9
S113239092E00E94021ADF91CF911F910F91FF905A
S11323A0EF90DF90CF900C94B316FC0184A18111BF
S11323B003C083EC97E0089583EA97E00895FC0155
S11323C085A1882331F0813019F423E837E003C074
S11323D0089523E637E0C90108951F93CF93DF934F
S11323E0EC018DA1811109C011E01DA38EA10E94F1
S11323F0A40A8EA310938E0207C01DA28EA10E9470
S1132400AA0A8EA310928E0287E892E0DF91CF9100
S11324101F910C941E0DFC0184A191E0982794A3B4
S113242090938D0287E892E00C941E0D0F931F93F6
S1132430CF93DF93EC018C01045F1F4F4BE052E11B
S113244065ED71E1C8010E944A184DEE51E16FED4E
S113245071E1C8010E944A1881E090918D029111A6
S113246001C080E08CA381E090918E02911101C0A3
S113247080E08DA3813019F480918B0204C0809197
S11324808B020E94AA0A8EA3DF91CF911F910F9114
S113249008951F93CF93DF93EC018D818823B1F1CD
S11324A08E819EA1282F291BFE01E20FF11D309180
S11324B0840237838F5F8E83243010F48033F8F0E6
S11324C0FE01379680E010E020E03191231710F4EC
S11324D0182F232F8F5F8430C1F7190F1EA3812F6C
S11324E00E94A40A0E94C90A812F0E94A40A809310
S11324F08B0287E892E00E941E0D1D822EC00E946E
S1132500A40ADF91CF911F910C94C90A8A81882370
S113251021F18C819EA181110DC0809184028035AE
S113252048F01A8281E08D839E831F821886198663
S11325301A8613C08B81890F8F3F11F48FE202C07A
S1132540803310F48EA301C01EA28EA10E94A40A9F
S11325500E94C90A8C8181111C82DF91CF911F9145
S11325600895FC0124A1211102C00E9449120C9477
S1132570AF16CF93FC0185A1811105C086A10E94ED
S1132580A40AC82F01C0C6A18C2F0E94C90AC093F7
S11325908B0287E892E0CF910C941E0D0F931F934A
S11325A0CF93DF93EC01162F042F0C960E945E1834
S11325B081112CC08CA181110EC0011127C01230D1
S11325C029F181E08A838C83112311F08FEF01C0FC
S11325D081E08B831BC00D7FC9F48EA1111102C051
S11325E08F5F03C0113011F481508EA38EA18F3FF1
S11325F019F48FE28EA303C0803308F01EA2CE012B
S1132600DF91CF911F910F910C94B912DF91CF916B
S11326101F910F910895CF92DF92EF92FF920F9343
S11326201F93CC24C394D12C92E0E92EF12C07E023
S113263010E027E330E047E250E060E070E086EB32
S113264092E00E94D81F23E030E040E450E060E0D4
S113265070E08BE390E01F910F91FF90EF90DF907B
S1132660CF900C94001765E086EB92E00E945B2605
S1132670E6EBF2E081E090E0938B828B918B808B90
S11326801586148617861686809185020E948D0A07
S1132690BC0186EB92E00C94AA1962E086EB92E00E
S11326A00E945B26E6EBF2E081E090E0938B828B64
S11326B0918B808B86E090E09587848782E390E01D
S11326C097878687809185020E94840A4AE050E0B9
S11326D0BC0186EB92E00C94021ACF92EF920F9316
S11326E01F93CF93DF938DE1C82E95E4E92E00E08C
S11326F02DE344E668E18FE492E00E944F1702E282
S11327002DE344E668E18AE692E00E944F1723E055
S113271030E045E450E06FE170E08DE390E00E942A
S1132720C41661E086EB92E00E945B26C6EBD2E021
S113273082E090E09B8B8A8B998B888B0FE310E06F
S11327401D870C878BE090E09F878E8785EE97E04E
S11327500E94B00ABC01CE010E94AA191D870C87F1
S11327608DE290E09F878E8783EE97E00E94B00A07
S1132770BC01CE01DF91CF911F910F91EF90CF90CB
S11327800C94AA19EF92FF920F931F93FC0186A158
S1132790F3E38F9FC001112460E370E00E948B314A
S11327A09B013327EE24E394F12C03E010E049E28B
S11327B050E062E070E086EB92E00E94741D1F918D
S11327C00F91FF90EF900895CF93DF93EC010E9457
S11327D0AB16CE010E940B13CE010E943313CE011F
S11327E00E944D13CE010E94C213CE010E946D13AC
S11327F0DF91CF910C94B316CF93DF93EC0123E2D6
S113280030E04BE350E060E070E080E090E00E9454
S11328103C172EE030E04BE350E062E370E080E0F0
S113282090E00E943C1723E030E043E350E069E28B
S113283070E082E090E00E943C17CE010E943313C6
S1132840CE010E944D13CE010E94C213CE010E94FC
S11328506D13CE010C960E94AA18DF91CF910C94AF
S1132860B3160895623019F486E00C94720E08953C
S11328700E94AB1661E086EB92E00E945B26E6EBD9
S1132880F2E0158614861786168687EE97E00E9476
S1132890B00ABC0186EB92E00E94AA190C94B3160C
S11328A0FC01128208950C94AF16EF92FF920F93DD
S11328B01F93CF93DF93EC010E94AB168A81823081
S11328C009F4E9C0B0F4882309F4AFC0813009F0F9
S11328D01BC161E086EB92E00E945B261092C3026A
S11328E01092C2021092C5021092C4028FE798E0BF
S11328F004C1833009F4F2C0843009F005C161E0F9
S113290086EB92E00E945B261092C3021092C202F0
S11329101092C5021092C40287E298E00E94B00AA5
S1132920BC0186EB92E00E94AA191092C302109295
S1132930C202CEE0D0E0D093C502C093C40281E2CB
S113294098E00E94B00ABC0186EB92E00E94AA19AA
S11329508EE1E82EF12CF092C302E092C202D093F1
S1132960C502C093C40260918F02709190024AE044
S113297050E086EB92E00E94021A08E410E0109303
S1132980C3020093C202D093C502C093C4026091F3
S11329908F02709190024AE050E086EB92E00E9430
S11329A0021A1092C3021092C202C6E1D0E0D09380
S11329B0C502C093C4028BE198E00E94B00ABC0136
S11329C086EB92E00E94AA19F092C302E092C2023E
S11329D0D093C502C093C402609191027091920297
S11329E04AE050E086EB92E00E94021A1093C30280
S11329F00093C202D093C502C093C40260919602B0
S1132A00709197024AE050E086EB92E00E94021A2D
S1132A101092C3021092C20288E390E09093C50220
S1132A208093C40287E098E068C061E086EB92E09E
S1132A300E945B261092C3021092C2021092C50239
S1132A401092C4028AEC98E00E94B00ABC0186EBA2
S1132A5092E00E94AA191092C3021092C20280E16D
S1132A6090E09093C5028093C40286EB98E00E94A4
S1132A70B00ABC0186EB92E00E94AA191092C3022C
S1132A801092C20288E390E09093C5028093C4023E
S1132A908FE998E032C061E086EB92E00E945B2609
S1132AA01092C3021092C2021092C5021092C40284
S1132AB089E698E00E94B00ABC0186EB92E00E948D
S1132AC0AA191092C3021092C20288E390E0909374
S1132AD0C5028093C40282E598E00FC061E086EBF2
S1132AE092E00E945B261092C3021092C2021092DE
S1132AF0C5021092C40281E398E00E94B00ABC01AE
S1132B0086EB92E00E94AA19DF91CF911F910F9159
S1132B10FF90EF900C94B316623099F5411131C0D7
S1132B20FC0182818230A9F0843011F1811127C027
S1132B3081E08283138280E00E94C90A8FEF9FEFB5
S1132B409093900280938F029093950280939402C5
S1132B5016C083E08283138280E00E94C90A109227
S1132B60920210929102109297021092960207C05C
S1132B7087E892E00E94E50C84E00E94720E0C94B7
S1132B80AF160895CF93DF93EC010E94FD0A8823CA
S1132B9009F463C08A81813019F0833001F13DC0AA
S1132BA0809182029091830220918F023091900251
S1132BB08217930720F49093900280938F02809160
S1132BC067029091680220919402309195028217D5
S1132BD0930718F590939502809394021EC08091F8
S1132BE082029091830220919102309192022817DF
S1132BF0390720F4909392028093910280916702A6
S1132C009091680220919602309197022817390713
S1132C1020F490939702809396028091850290E02D
S1132C20019660E370E00E948B310E94C90A809192
S1132C308502811112C08B818F5F8B83833069F48D
S1132C408A81813021F0833021F484E001C082E064
S1132C508A83DF91CF910C94AF16DF91CF910895C1
S1132C60CF93DF93EC017D836C830E94521A2C81F5
S1132C703D81DC01CB01820F931FA11DB11D88830F
S1132C809983AA83BB831E82DF91CF9108950F930A
S1132C901F93CF93DF93FC01268121110FC0EC0118
S1132CA00E94521A088119812A813B816017710799
S1132CB08207930728F081E08E8303C081E001C07E
S1132CC080E0DF91CF911F910F910895CF93DF930F
S1132CD0EC010E94521A2C813D81DC01CB01820F50
S1132CE0931FA11DB11D88839983AA83BB831E8270
S1132CF0DF91CF9108950F93CF93DF9301E021E00B
S1132D004CE362E086EB92E00E94EB28C6EBD2E053
S1132D1081E090E09B8B8A8B998B888B61E0CE015C
S1132D200E945B261F8ACE010E94CD2821E040E04C
S1132D3062E0CE010E94EB28DF91CF910F910895BC
S1132D408091B402882331F086EB92E00E94642CD7
S1132D501092B402089586EB92E00C94CD2881E0A1
S1132D608093B502089581E08093B402089581E0D0
S1132D708093B30208956FEF86EB92E00C944D2795
S1132D8086EB92E00C9471276F927F928F929F92C0
S1132D90AF92BF92CF92DF92EF92FF920F931F9365
S1132DA0CF93DF935C013B014A017901690137FF4D
S1132DB003C08FEFC81AD80AD594C794C0E0D0E0F6
S1132DC08C169D0674F0BE016A0D7B1D01E010E0B7
S1132DD09601A30186EB92E00E94E12BCE0DDF1D4C
S1132DE0EFCFDF91CF911F910F91FF90EF90DF9084
S1132DF0CF90BF90AF909F908F907F906F900895E9
S1132E006F927F928F929F92AF92BF92CF92DF92F6
S1132E10EF92FF920F931F93CF93DF933C015B01DB
S1132E204A017901690137FF03C08FEFC81AD80A34
S1132E30D594C794C0E0D0E08C169D0674F0AE0122
S1132E404A0D5B1D02E010E09601B30186EB92E0AF
S1132E500E94222CCE0DDF1DEFCFDF91CF911F9169
S1132E600F91FF90EF90DF90CF90BF90AF909F9025
S1132E708F907F906F900895EF92FF920F931F931E
S1132E80E12CF12C89019A01AB01BC0186EB92E0A3
S1132E900E94741D1F910F91FF90EF9008952F923F
S1132EA03F924F925F926F927F928F929F92AF92D6
S1132EB0BF92CF92DF92EF92FF920F931F93CF9323
S1132EC0DF9300D000D0CDB7DEB73C016983342E48
S1132ED02B834E2C512CA02EB12C2C2D30E02F5FA7
S1132EE03F4FA20141505109B501EB818E2F90E073
S1132EF00E943C176981262F30E0490171E0871A4E
S1132F009108C201B4010E948B316A83689DE01864
S1132F101124F12C8FEFE81AF80AF594E794DE2CCB
S1132F20EB81212C432C512CB901625071097C8313
S1132F306B83222D30E0281539050CF03FC0D301F6
S1132F40A20FB31F8C91381608F4832D1196FC91AF
S1132F503F1608F4F32DC89EC0011124B2010E944B
S1132F608B314C2D461BCF9EC0011124B2010E940F
S1132F708B319C2D961B222039F06B817C81261786
S1132F80370711F080E001C08D2D7A81870F8E0FF5
S1132F9089838501090F111D282F30E0C501840F95
S1132FA0911DAC016E2F70E0EE24E394F12C86EBBE
S1132FB092E00E94D61D2394E981BBCF0F900F901D
S1132FC00F900F90DF91CF911F910F91FF90EF9091
S1132FD0DF90CF90BF90AF909F908F907F906F9035
S1132FE05F904F903F902F900895FC01118E108EAA
S1132FF0138E128E0895CF93FC01A08DB18DC6E07F
S1133000CA9FF001CB9FF00D1124E80FF91F7183C3
S1133010608355834483338322831196FC01B18FEB
S1133020A08FCF910895FC01828D938D0196938F8B
S1133030828F208D318D8217930714F0138E128E98
S11330400895FC01828D938D0197938F828F97FF52
S113305005C0808D918D0197938F828F0895FC0117
S1133060428D538D66E0649F9001659F300D11245D
S1133070E20FF31F0280F381E02D0994FC01428DDD
S1133080538D66E0649F9001659F300D1124820F7B
S1133090931F0895FC0122893389F901EE0FFF1F64
S11330A0EE0FFF1FE80FF91F718360835383428380
S11330B02F5F3F4FFC01338B228B08951F93CF93D7
S11330C0DF93EC01623089F4413079F48E8948272A
S11330D04E8B411102C00E94B7161E89111102C005
S11330E011E033C080E18F8B30C01E89112369F158
S11330F06130F9F088F0623041F5EC89FD89EE0F1A
S1133100FF1FEE0FFF1FEC0FFD1F0280F381E02D68
S113311088899989099519C08C899D8901979D8B06
S11331208C8B97FFDDCF8A899B8901979D8B8C8B34
S11331300CC08C899D8901969D8B8C8B2A893B8937
S1133140821793076CF21D8A1C8A812FDF91CF911D
S11331501F9108957F928F929F92AF92BF92CF92C8
S1133160DF92EF92FF920F931F93CF93DF93EC01C3
S11331708E89882309F48BC08F89882331F0845089
S113318087FD02C08F8B01C01F8A6F89062E000C39
S1133190770B60597F4FE12CF12C00E410E020E123
S11331A030E040E050E086EB92E00E94741D6F89AD
S11331B0062E000C770B61597F4F01E010E020E4EC
S11331C030E040E050E086EB92E00E94222C8A89B5
S11331D09FE1892E28E0829F80181124712C912C64
S11331E0A72CB12C8A899B89A816B9060CF04FC06C
S11331F08C899D89A816B906C9F4A50164E0440F19
S1133200551F6A95E1F7480D591D6F89062E000C6C
S1133210770B60597F4FEE24E394F12C00E110E02A
S113322020E130E086EB92E00E94741DCC24C3942C
S1133230D12C8C899D898A159B0511F4C12CD12C24
S1133240F501EE0FFF1FEE0FFF1FEC0FFD1F0190A6
S1133250F081E02D888999890995A50124E0440F1E
S1133260551F2A95E1F7480D591D6F89062E000C4C
S1133270770B60597F4F30E1E32EF12C00E110E031
S11332809C0186EB92E00E94A5227394A9CFDF9162
S1133290CF911F910F91FF90EF90DF90CF90BF904F
S11332A0AF909F908F907F90089508950E94CA1ABE
S11332B00E9455190E94B70DC0E0D0E00E94DB0DBA
S11332C02097E1F30E940000F9CF0C94233280E0B0
S11332D090E008950895CF92DF92EF92FF920F93BA
S11332E01F93CF93DF936C017A018B01C0E0D0E090
S11332F0CE15DF0581F0D8016D918D01D601ED91D8
S1133300FC910190F081E02DC6010995892B11F003
S11333102196EECF7E01C701DF91CF911F910F91CE
S1133320FF90EF90DF90CF9008956115710579F0CB
S1133330FB0101900020E9F73197AF01461B570BC1
S1133340DC01ED91FC910280F381E02D099480E091
S113335090E008950C9495198F929F92AF92BF922A
S1133360EF92FF920F931F93CF93DF93CDB7DEB706
S1133370A1970FB6F894DEBF0FBECDBF7C01FA0152
S1133380CB0119A2223008F42AE08E010F5D1F4FF1
S1133390822E912CA12CB12CBF01A50194010E9475
S11333A09F31F901CA01015011096A3010F4605DBE
S11333B001C0695CD8016C93232B242B252B61F766
S11333C0B801C7010E949519A1960FB6F894DEBF03
S11333D00FBECDBFDF91CF911F910F91FF90EF9062
S11333E0BF90AF909F908F9008952115310541F4BF
S11333F0DC01ED91FC910190F081E02D642F0994A2
S11334000C94AC199A01AB0160E070E00C94F519CE
S11334101F920F920FB60F9211242F933F938F9305
S11334209F93AF93BF938091F7029091F802A0917C
S1133430F902B091FA023091F60223E0230F2D37FE
S113344020F40196A11DB11D05C026E8230F0296A4
S1133450A11DB11D2093F6028093F7029093F80208
S1133460A093F902B093FA028091FB029091FC02BE
S1133470A091FD02B091FE020196A11DB11D8093A1
S1133480FB029093FC02A093FD02B093FE02BF9155
S1133490AF919F918F913F912F910F900FBE0F90FD
S11334A01F9018952FB7F8946091F7027091F80265
S11334B08091F9029091FA022FBF08953FB7F894D2
S11334C08091FB029091FC02A091FD02B091FE025A
S11334D026B5A89B05C02F3F19F00196A11DB11D6B
S11334E03FBFBA2FA92F982F8827820F911DA11DA6
S11334F0B11DBC01CD0142E0660F771F881F991FE3
S11335004A95D1F708958F929F92AF92BF92CF922E
S1133510DF92EF92FF926B017C010E945E1A4B01D5
S11335205C01C114D104E104F10401F10E94982E5C
S11335300E945E1ADC01CB0188199909AA09BB090A
S1133540883E9340A105B10560F321E0C21AD10879
S1133550E108F10888EE880E83E0981EA11CB11CD6
S1133560C114D104E104F10419F7DBCFFF90EF900B
S1133570DF90CF90BF90AF909F908F90089582304E
S1133580910538F0880F991F880F991F05970197A7
S1133590F1F70895789484B5826084BD84B5816020
S11335A084BD85B5826085BD85B5816085BDEEE647
S11335B0F0E0808181608083E1E8F0E01082808126
S11335C082608083808181608083E0E8F0E0808194
S11335D081608083E1EBF0E0808184608083E0EBB4
S11335E0F0E0808181608083EAE7F0E0808184609C
S11335F080838081826080838081816080838081F8
S1133600806880831092C10008958E3008F08E5037
S11336102091060190E4299F900111248770822B48
S113362080937C0080917A00806480937A008091FA
S11336307A0086FDFCCF809178002091790090E09B
S1133640922B0895833081F028F4813099F08230F0
S1133650A1F008958730A9F08830B9F08430D1F40E
S1133660809180008F7D03C0809180008F7780934C
S11336708000089584B58F7702C084B58F7D84BDA2
S113368008958091B0008F7703C08091B0008F7D42
S11336908093B0000895CF93DF9390E0FC01EB504A
S11336A0F74F2491FC01E75FF64F8491882361F181
S11336B090E0880F991FFC01EF5CF64FC591D491FF
S11336C0FC01E95DF64FA591B491611109C09FB762
S11336D0F8948881209582238883EC912E230BC053
S11336E0623061F49FB7F8948881322F3095832338
S11336F08883EC912E2B2C939FBF06C08FB7F89430
S1133700E8812E2B28838FBFDF91CF9108951F93DB
S1133710CF93DF93282F30E0F901EF51F74F8491D5
S1133720F901EB50F74FD491F901E75FF64FC491DB
S1133730CC23C1F0162F81110E94221BEC2FF0E044
S1133740EE0FFF1FE95DF64FA591B4919FB7F89472
S1133750111104C08C91D095D82302C0EC91DE2BBA
S1133760DC939FBFDF91CF911F910895CF93DF9397
S1133770282F30E0F901EF51F74F8491F901EB5014
S1133780F74FD491F901E75FF64FC491CC2391F040
S113379081110E94221BEC2FF0E0EE0FFF1FE35E6D
S11337A0F64FA591B491EC91ED2381E090E021F4E2
S11337B080E002C080E090E0DF91CF9108954F92C5
S11337C05F926F927F92AF92BF92CF92DF92EF920D
S11337D0FF920F931F93CF93DF93CDB7DEB72901E9
S11337E03A019B01AC012419350946095709898915
S11337F09A89AB89BC89BC01CD016A197B098C0902
S11338009D090E947B31A8019701241935094609B5
S113381057090E94C131CA01B9016A0D7B1D8C1D73
S11338209D1DDF91CF911F910F91FF90EF90DF903D
S1133830CF90BF90AF907F906F905F904F9008951E
S11338402F923F924F925F926F927F928F929F92AC
S1133850AF92BF92CF92DF92EF92FF920F931F939A
S1133860CF93DF9300D000D000D0CDB7DEB72C01CA
S11338707E836D836A015901C801FC82EB82480191
S1133880841A950A97FE03C0919481949108350196
S11338902D813E81621A730A77FE03C0719461948C
S11338A07108681479045CF43A2D2B2D5C01832F84
S11338B0922F3D812E81DE82CD82C32ED22EAD8108
S11338C0BE81AA16BB065CF43C2D2D2D6C01832F02
S11338D0922F3D812E81BE82AD82A32EB22E850110
S11338E02D813E81021B130B1C012C183D0837FE51
S11338F003C0319421943108780117FF03C03FEFCE
S1133900E31AF30AF594E794C816D9062CF08FEF5E
S11339109FEF9A83898304C0A1E0B0E0BA83A983AE
S11339202D813E81A216B30624F1D201ED91FC91C2
S11339300484F585E02D2B813C816814790424F4FA
S11339404D815E81B60103C0A6016D817E81C201F5
S11339500995E218F308F7FE06C029813A81C20EE0
S1133960D31EE00EF11E8D819E8101969E838D8370
S1133970D7CF26960FB6F894DEBF0FBECDBFDF912A
S1133980CF911F910F91FF90EF90DF90CF90BF9058
S1133990AF909F908F907F906F905F904F903F90EB
S11339A02F900895DC01ED91FC910084F185E02DC8
S11339B009940F931F93DC01ED91FC91048CF58D18
S11339C0E02D09951F910F9108950F931F93DC012A
S11339D0ED91FC91068CF78DE02D09951F910F91C7
S11339E00895EF92FF920F931F93DC01ED91FC91E8
S11339F000A0F1A1E02D09951F910F91FF90EF9088
S1133A00089508958F929F92AF92BF92CF92DF92C2
S1133A10EF92FF920F931F93CF93DF93EC015B011F
S1133A204A0169017801E881F9810284F385E02D76
S1133A300995C80CD91C860101501109E881F98146
S1133A400488F589E02D9501A401B501CE010995FD
S1133A50E881F9810688F789E02DCE01DF91CF91C5
S1133A601F910F91FF90EF90DF90CF90BF90AF9098
S1133A709F908F9009948F929F92AF92BF92CF9212
S1133A80DF92EF92FF920F931F93CF93DF93EC019A
S1133A905B014A016901E881F9810284F385E02D23
S1133AA0099595012C0D3D1D21503109E881F981BD
S1133AB00488F589E02D78018401A401B501CE01C3
S1133AC00995E881F9810688F789E02DCE01DF9117
S1133AD0CF911F910F91FF90EF90DF90CF90BF9007
S1133AE0AF909F908F9009944F925F926F927F92C4
S1133AF08F929F92AF92BF92CF92DF92EF92FF92FA
S1133B000F931F93CF93DF936C012B015A0139015B
S1133B104801DC01ED91FC910284F385E02D0995C7
S1133B20E201640C751CD601ED91FC91C615D70514
S1133B305CF40088F189E02D87019401A501BE01A0
S1133B40C60109952196EFCF0688F789E02DC601B5
S1133B50DF91CF911F910F91FF90EF90DF90CF9065
S1133B60BF90AF909F908F907F906F905F904F9099
S1133B700994EF92FF920F931F93DC011A960D9113
S1133B801C911B9718962D913C911997ED91FC91DE
S1133B9000A0F1A1E02D7B0140E050E060E070E086
S1133BA009951F910F91FF90EF9008958F929F9226
S1133BB0AF92BF92CF92DF92EF92FF920F931F9337
S1133BC0CF93DF934C016B015A01E901DC01ED91C4
S1133BD0FC916217730781F40417150724F48B2DE5
S1133BE05801042F182F0A191B0998012F5F3F4F02
S1133BF0048CF58DE02D12C04017510709F52617E6
S1133C00370724F48D2D6901C62FD82F9E012C1956
S1133C103D092F5F3F4F068CF78DE02D8701A501ED
S1133C20B601C4010995DF91CF911F910F91FF90C7
S1133C30EF90DF90CF90BF90AF909F908F900895BA
S1133C400284F385E02D0995D401ED91FC9104885B
S1133C50F589E02D9E01A501B601C4010995D401A1
S1133C60ED91FC910688F789E02DC401DF91CF9195
S1133C701F910F91FF90EF90DF90CF90BF90AF9086
S1133C809F908F9009946F927F928F929F92AF92A0
S1133C90BF92CF92DF92EF92FF920F931F93CF9335
S1133CA0DF93EC014B015A0169013801E881F98184
S1133CB00284F385E02D0995E881F9810288F3896E
S1133CC0E02D87019601A501B401CE010995A50156
S1133CD0460D571D41505109E881F9810288F38945
S1133CE0E02D9601B401CE010995E881F98100889F
S1133CF0F189E02D9301A501B401CE010995C80C09
S1133D00D91CB60161507109E881F9810088F189F3
S1133D10E02D9301A501CE010995E881F98106887A
S1133D20F789E02DCE01DF91CF911F910F91FF9084
S1133D30EF90DF90CF90BF90AF909F908F907F9047
S1133D406F9009940895FC016370668B848195815A
S1133D5026813781613039F0633029F0918780877B
S1133D603387228708953187208793878287089530
S1133D70FC01138212828BE691E091838083758328
S1133D806483578346837187608753874287168A83
S1133D90158614861786168681E0858B848B2FEF13
S1133DA03FEF338B228B318B208B878B108E128EBF
S1133DB0118E08952F923F924F925F926F927F924D
S1133DC08F929F92AF92BF92CF92DF92EF92FF9227
S1133DD00F931F93CF93DF9300D000D000D0CDB7C3
S1133DE0DEB79E838D834B013A016901802F21E068
S1133DF030E029014C185D08222433242C183D0896
S1133E00220C331CAA24A394B12C01E010E0982FB7
S1133E1094709983A82FA270AA83B82FB870BB831B
S1133E2081708C83C50101978C159D050CF0A7C08A
S1133E3057FC08C091E0C91AD108A2E02A0E311C2F
S1133E40420C531C0E5F1F4F400E511EB981BB2301
S1133E5011F1AD81BE81ED91FC9111970484F5853A
S1133E60E02D9701A601460D571DB4016A0D7B1D77
S1133E70CD010995AD81BE81ED91FC91119704842A
S1133E80F585E02D9701A3014A0D5B1DB601680D70
S1133E90791DCD010995BA81BB2311F1AD81BE8194
S1133EA0ED91FC9111970484F585E02D9701A30110
S1133EB04C195D09B4016A0D7B1DCD010995AD81D5
S1133EC0BE81ED91FC9111970484F585E02D970155
S1133ED0A3014A195B09B601680D791DCD01099545
S1133EE0BB81BB2311F1AD81BE81ED91FC91119792
S1133EF00484F585E02D9701A3014A0D5B1DB401EF
S1133F006C197D09CD010995AD81BE81ED91FC91BE
S1133F1011970484F585E02D9701A601460D571DE0
S1133F20B4016A197B09CD010995BC81B11104C0A2
S1133F308FEFA81AB80A76CFAD81BE81ED91FC91BE
S1133F4011970484F585E02D9701A3014A195B09B3
S1133F50B4016C197D09CD010995AD81BE81ED9146
S1133F60FC9111970484F585E02D9701A3014C1968
S1133F705D09B4016A197B09CD010995D9CF26964B
S1133F800FB6F894DEBF0FBECDBFDF91CF911F9166
S1133F900F91FF90EF90DF90CF90BF90AF909F90E4
S1133FA08F907F906F905F904F903F902F900895E7
S1133FB02F923F924F925F926F927F928F929F9235
S1133FC0AF92BF92CF92DF92EF92FF920F931F9323
S1133FD0CF93DF93CDB7DEB728970FB6F894DEBF43
S1133FE00FBECDBF5C017A8369832A013901480180
S1133FF02017310734F43C832B8337FF0AC0C901EF
S113400005C01C830B8317FF04C0C80101969C8361
S11340108B83AB81BC81B595A795BC83AB838B8126
S11340209C8198878F83E816F90614F4F886EF824A
S1134030D501ED91FC910284F385E02DC50109952C
S11340408F819885880F991F9C838B837301E81A4D
S1134050F90A29803A80AF81B8852A0E3B1ED50122
S1134060ED91FC910288F389E02D86019701A2016C
S1134070B101C5010995C401840D951D9E838D83ED
S1134080AC0141505109D501ED91FC910288F389AD
S1134090E02D9701B101C50109958B819C81881A96
S11340A0990AAF81B8854A0E5B1ED501ED91FC914A
S11340B00088F189E02D9401A20169817A81C5010A
S11340C0099589819A81680E791EB301615071093D
S11340D0D501ED91FC910088F189E02D9401A201B4
S11340E0C5010995760101E02F813885A201B1014E
S11340F0C5010E94DA1E8F819885681A790A91E0B9
S1134100691A710802E02F813885A201B301C50143
S11341100E94DA1E8D809E80AF81B8858A1A9B0A20
S1134120B1E08B1A910804E02F813885A401B30112
S1134130C5010E94DA1E08E02F813885A401B1016F
S1134140C5010E94DA1ED501ED91FC910688F7891C
S1134150E02DC50128960FB6F894DEBF0FBECDBF83
S1134160DF91CF911F910F91FF90EF90DF90CF904F
S1134170BF90AF909F908F907F906F905F904F9083
S11341803F902F9009942F923F924F925F926F929B
S11341907F928F929F92AF92BF92CF92DF92EF92D3
S11341A0FF920F931F93CF93DF93CDB7DEB7AA97F8
S11341B00FB6F894DEBF0FBECDBF9A8389837AA76A
S11341C069A74A0119013801BA8AA98A041715078F
S11341D054F4C416D506A4F45C834B8348015B01F4
S11341E03AA729A707C0C016D1060CF0AAC17C8241
S11341F06B825101C814D90484F03601170113C02D
S1134200DC82CB825701872D3A01802E982E832D94
S113421029A43AA429A78AA706C0340129A43AA448
S11342204601E9A6FAA6A981BA81ED91FC911197FC
S11342300284F385E02DCD0109952B813C81821602
S1134240930681F549A55AA5241635065CF099A56F
S11342508AA54215530514F4922D832D29A43AA45A
S113426099A78AA7A214B30444F069A57AA56A158C
S11342707B0514F4BAA6A9A6510129A53AA52A19C1
S11342803B092F5F3F4FA981BA81ED91FC911197B2
S11342900288F389E02D09891A89A401B501CD01A9
S11342A009952DC1C10129A53AA5821B930B930140
S11342B028193909650149A55AA5C41AD50A6B817B
S11342C07C81681979097A8769872501421853081E
S11342D0AB81BC81A619B709BC8BAB8B4B815C81CC
S11342E06416750631F0B30161507109788F6F8BD4
S11342F002C0788E6F8A54011D861E861F86188A16
S11343001D821E821F821886A6010D2C000C660BCE
S1134310770B498F5A8F6B8F7C8FA901330F660BF4
S1134320770B4D8F5E8F6F8F78A329853A85032E87
S1134330000C440B550B29A33AA34BA35CA3AC017B
S1134340990F660B770B4DA35EA36FA378A76F89B4
S1134350788D6A157B050CF45AC06D817E818F813E
S113436098852D8D3E8D4F8D58A10E94C131E9A4B1
S1134370FAA4E20EF31E6D857E858F85988929A1A6
S11343803AA14BA15CA10E94C13189A59AA5280F2D
S1134390391F4D815E816F8178858DA19EA1AFA16A
S11343A0B8A5480F591F6A1F7B1F4D835E836F8317
S11343B078874D855E856F857889898D9A8DAB8DDB
S11343C0BC8D480F591F6A1F7B1F4D875E876F87FF
S11343D0788B2E153F052CF49E2D8F2D7901292FD6
S11343E0382F2E193F092F5F3F4FA981BA81ED91D4
S11343F0FC9111970288F389E02D09891A89A50196
S1134400B701CD010995BFEFAB1ABB0AA0CF92014A
S1134410052C000C440B550B2D833E834F8358878A
S1134420D501A619B70992010E94E0312B013C0184
S1134430D501A819B90996010E94E0316B017C01EC
S11344404B895C89052E000C660B770B4B8B5C8BC0
S11344506D8B7E8B69857A85072E000C880B990BF2
S113446069877A878B879C878B819C818A159B05BA
S11344700CF445C0C301B2012B893C894D895E8986
S11344800E94C1314101820E931EC701B6012985E4
S11344903A854B855C850E94C131A9A5BAA52A0F2E
S11344A03B1F4D815E816F817885440E551E661ECB
S11344B0771E698D7A8D8B8D9C8DC60ED71EE81E56
S11344C0F91E281539052CF4982D892D4901292F19
S11344D0382F281939092F5F3F4FA981BA81ED91EF
S11344E0FC9111970288F389E02D09891A89A501A5
S11344F0B401CD010995BFEFAB1ABB0AB5CFA981B1
S1134500BA81ED91FC9111970688F789E02DCD01D0
S1134510AA960FB6F894DEBF0FBECDBFDF91CF9140
S11345201F910F91FF90EF90DF90CF90BF90AF90CD
S11345309F908F907F906F905F904F903F902F90BF
S11345400994DC82CB8257016ECE3F924F925F92E8
S11345506F927F928F929F92AF92BF92CF92DF928F
S1134560EF92FF920F931F93CF93DF93CDB7DEB7F4
S11345702A970FB6F894DEBF0FBECDBF5C017E83D1
S11345806D8358874F8329013701DC01ED91FC913C
S11345900284F385E02D0995C801079697FD0796D7
S11345A09C0193E0359527959A95E1F73A83298301
S11345B0812C912CE12CF12C312C8F8198858E0D3E
S11345C09F1D9C838B83E614F7040CF03DC01A8670
S11345D01986A985BA85A017B10774F5CD0187702E
S11345E09927892B11F0330C0EC0E985FA85F7FD64
S11345F0379683E0F595E7958A95E1F7E80DF91D7F
S1134600E40DF51D349037FE11C0D501ED91FC91F8
S11346100484F585E02D96014B815C816D817E815A
S113462089859A85680F791FC5010995A985BA8579
S11346301196BA87A987CDCFBFEFEB1AFB0A298160
S11346403A81820E931EB9CFD501ED91FC91068873
S1134650F789E02DC5012A960FB6F894DEBF0FBE88
S1134660CDBFDF91CF911F910F91FF90EF90DF901D
S1134670CF90BF90AF909F908F907F906F905F90FE
S11346804F903F9009942F923F924F925F926F9276
S11346907F928F929F92AF92BF92CF92DF92EF92CE
S11346A0FF920F931F93CF93DF93CDB7DEB76B9732
S11346B00FB6F894DEBF0FBECDBF9B8F8A8F2B0140
S11346C05A834983D22E198708874701AB82DC01BC
S11346D059962D913C915A972115310509F000C145
S11346E018968D919C911997681779070CF0E7C17A
S11346F01A968D919C911B97481759070CF0DFC1AE
S11347002C2C312CFB0126E0C29EE00DF11D11245E
S1134710FD87EC871E161F060CF0D1C14A2D50E010
S11347205B874A8783E0440F551F8A95E1F75F87CB
S11347304E8789819A81840F951F181619060CF0EB
S1134740BEC158968C91811104C06FEA6D1508F4AE
S1134750D394AA8DBB8DED91FC9111970284F385BE
S1134760E02DCD010995B5E0DB9EC0011124EC2DAF
S1134770F0E0F98BE88B92012B5F3F4F3B8B2A8B48
S113478032015D824C82AC01441955095D8B4C8B1E
S11347907B81672F70E07F8B6E8B89819A8108966D
S11347A0998F888FEC89FD89E60DF71DE55CF64F3E
S11347B0D490A981BA81BF83AE835D01D0FE16C0B7
S11347C0AA8DBB8DED91FC91B1E0CB1209C02B8178
S11347D0213031F40484F585E02D2885398519C00C
S11347E00684F785E02DE884F9841DC04885598541
S11347F04815590511F1AA8DBB8DED91FC91B1E0DD
S1134800CB120DC02B81213051F40484F585E02DA9
S11348109401A501B3018A8D9B8D09950EC0068470
S1134820F785E02D74010A851B8591014E815F8116
S11348306C817D818A8D9B8D0995D6944E815F8193
S11348406E897F89460F571F5F834E837FEFA71AB8
S1134850B70A888D998DA816B90609F0AFCFAC8137
S1134860BD81E889F989AE0FBF1FBD83AC83FFEF1B
S11348706F1A7F0A2A893B896216730609F092CF60
S1134880488559854815590509F4F7C0AA8DBB8D8B
S1134890ED91FC91B1E0CB1212C02B81213079F45F
S11348A0B2016B5F7F4F0088F189E02D840128E01D
S11348B030E049815A818A8D9B8D0995DEC06C85D3
S11348C07D85621973090684F785E02D74010E85D0
S11348D01F85910149815A818A8D9B8D0995CDC08F
S11348E0F9013496E491DE1AF90132968591949196
S11348F0B7E0DB9E800D911D1124F90125913491BF
S1134900398B288BFC0125903490FC0132967490ED
S11349103196A490329694903196B49031E03C153F
S113492018F04B81423068F0692D092C000C770B8C
S11349307D836C838B2D0B2C000C990B9F838E83B2
S113494004C01F821E821D821C82AA8DBB8DED9124
S1134950FC9111970284F385E02DCD010995612C1A
S1134960D12C812CFB81EF2FF0E0FB87EA872C2DE3
S113497030E03D872C8749815A814B0D511DB7FC8E
S11349805A955D8B4C8BB201690D711D97FC7A951C
S11349907F8B6E8B8A1408F070C0282D30E04E8116
S11349A05F81420F531FAA85BB85A49FC001A59FA9
S11349B0900DB49F900D1124E981FA81E80FF91F3D
S11349C0FF87EE87862D912C4C895D89420F531FFA
S11349D05B8B4A8B971408F04DC0BB24B394B80E7C
S11349E0877041F4C1010196E889F989E20DF31D4C
S11349F0D4901C01D7FE3AC051E0C51216C06B8199
S1134A00613099F4AA8DBB8DED91FC9111970484CA
S1134A10F585E02D288539854A895B896E897F89EA
S1134A20690D711DCD01099521C08C819D81890D70
S1134A30911DEC85FD858E9FB0018F9F700D9E9F0B
S1134A40700D1124640D751DAA8DBB8DED91FC9123
S1134A5011970684F785E02DE884F9840A851B857F
S1134A602C853D854E855F85CD010995DD0C93949C
S1134A708B2DB0CF670C83948DCFAA8DBB8DED9118
S1134A80FC9111970688F789E02DCD016B960FB63E
S1134A90F894DEBF0FBECDBFDF91CF911F910F9170
S1134AA0FF90EF90DF90CF90BF90AF909F908F904A
S1134AB07F906F905F904F903F902F9009946B96EA
S1134AC00FB6F894DEBF0FBECDBFDF91CF911F911B
S1134AD00F91FF90EF90DF90CF90BF90AF909F9099
S1134AE08F907F906F905F904F903F902F9008959C
S1134AF08F929F92AF92CF92EF92FF920F931F9358
S1134B00CF93DF93EC01262F898D9A8D009709F0BE
S1134B1042C06A3059F41D861C862D898E859F8576
S1134B2038E0239F800D911D112443C06D3009F49A
S1134B30AAC08F898823C9F03C898C859D8546E06D
S1134B40349F800D911D11244885598548175907B4
S1134B5064F41D861C863D898E859F8548E0349FBC
S1134B60800D911D11249F878E87EA88FB88088910
S1134B7019894E855F856C857D85AD88CC88CE018D
S1134B800E9443232C898C859D8536E0239F800DCC
S1134B90911D11243EC06A3079F41D861C862D892E
S1134BA0FC013896E4918E859F852E9F800D911D82
S1134BB011249F878E8767C06D3009F464C0FC019F
S1134BC034963491631708F45EC03296E491E61784
S1134BD008F459C0462F431B342FFC0132968590AC
S1134BE0949047E0349F800C911C1124F401329678
S1134BF034913196E491332311F0E1110DC0F401A5
S1134C003496E4912C898C859D85E29F800D911DBD
S1134C1011249D878C8737C0F401359644915F89B0
S1134C20552319F15C89E32FF0E0E40FF11D47FDF2
S1134C30FA955E9FB0015F9F700D11244C855D85D0
S1134C40460F571F688579856417750774F41D86A8
S1134C501C863D89FC013896E4918E859F853E9F94
S1134C60800D911D11249F878E87EA88FB8808890F
S1134C7019894E855F856C857D85AD88CC88CE018C
S1134C800E944323BCCF81E090E0DF91CF911F913C
S1134C900F91FF90EF90CF90AF909F908F900895D9
S1134CA0611101C061E0FC01648B411101C041E06C
S1134CB0FC01458B0895462F0C945026FC0177FD8A
S1134CC0B9C080859185681779070CF0B3C057FD8A
S1134CD0B1C082859385481759070CF008958689D9
S1134CE0823079F484819581DC01A61BB70BBD0168
S1134CF06150710986819781DC01A41BB50BAD015C
S1134D000EC0833009F084C064277527CA01862742
S1134D1097276827792746815781481B590B4150AB
S1134D2051092130310531F048F12230310509F4BF
S1134D304AC00895CA0157FD07969C01A3E0359522
S1134D402795AA95E1F7A481B5812A9FC0012B9FDD
S1134D50900D3A9F900D1124680F791F078CF0A1D4
S1134D60E02DE60FF71F4770552781E090E001C062
S1134D70880F4A95EAF79081892B48C0CA0157FDEC
S1134D8007969C0193E0359527959A95E1F7A481C0
S1134D90B5812A9FC0012B9F900D3A9F900D11243D
S1134DA0680F791F078CF0A1E02DE60FF71F4770FD
S1134DB0552781E090E001C0880F4A95EAF7809575
S1134DC09081892323C0CA0157FD07969C0183E083
S1134DD0359527958A95E1F7A481B5812A9FC0016D
S1134DE02B9F900D3A9F900D1124680F791F078C0B
S1134DF0F0A1E02DE60FF71F4770552781E090E002
S1134E0001C0880F4A95EAF7908189278083089525
S1134E10813009F086CF64277527462757276427F2
S1134E20752784819581DC01A61BB70BBD016150F8
S1134E30710977CF089520910103222399F04FB788
S1134E40F89420910103213059F42DB32093FF02EB
S1134E503DB320910003209523232DBB4FBF02C0F7
S1134E604093FF028CBD9DBD08958EBD00000DB41E
S1134E7007FEFDCF8EB5089580910103882361F06C
S1134E809FB7F894209101038091FF02213019F417
S1134E908DBB9FBF08958FBF08951F93CF93DF935A
S1134EA0EC01162F40E450E060E870E00E94B81E68
S1134EB087E991E0998388831C8E1B8E83E093E0BD
S1134EC09E8F8D8F18A21F8E8FEF8CA38DA38EA320
S1134ED08FA318A780E58EAF1FAEDF91CF911F91EE
S1134EE0089527E931E0FC0131832083878D90A167
S1134EF0009711F00C94BB3208951F93CF93DF9366
S1134F00FC01858D968D009719F1162FEF0161A193
S1134F10062E000C770B0E947A2E8D8D9E8DDC015F
S1134F20ED91FC910190F081E02D60E009958D8D6B
S1134F309E8DDC01ED91FC910190F081E02D612FBB
S1134F4009958D8D9E8DDF91CF911F910C948F2E9D
S1134F50A5A5B6A59C9183A9809589238C93838D5F
S1134F60948D892B31F0862FDF91CF911F910C9472
S1134F70352728E030E080E8A1A5B2A591A9462F05
S1134F80482319F04C91942B03C04C919095942391
S1134F909C93A3A5B4A54C9192A9942B9C93A3A5EF
S1134FA0B4A54C9192A9909594239C9386952150F5
S1134FB0310911F7DF91CF911F9108951F93CF937A
S1134FC0DF93EC01162F8D8D9E8D009739F04DA93E
S1134FD05EA96FA978AD0E946C2E0FC08B8D9C8D3D
S1134FE0892B21F08EAD9FAD0E941B27EFA5F8A958
S1134FF090818CA9809589238083111102C066EA6F
S113500001C067EACE010E947D278D8D9E8D009799
S113501049F049AD5AAD6BAD7CADDF91CF911F9195
S11350200C946C2EEFA5F8A990818CA9892B808310
S11350308B8D9C8D892B29F0DF91CF911F910C943E
S11350403C27DF91CF911F910895BF92CF92DF92B9
S1135050EF92FF920F931F93CF93DF93EC01B62E41
S1135060072F142F8D8D9E8D009709F452C069A1CE
S1135070062E000C770B0E947A2E8D8D9E8DDC01FE
S1135080ED91FC910190F081E02D60E00995CB2C2D
S1135090D02EEE24E394F12C8D8D9E8D112371F18D
S11350A0B0E2EB16F104B8F00E948F2E69A1062E2F
S11350B0000C770B8D8D9E8D0E947A2E8D8D9E8D8A
S11350C0DC01ED91FC910190F081E02D60E0099507
S11350D0EE24E394F12C8D8D9E8DF6016491DC0118
S11350E0ED91FC910190F081E02D0995BFEFEB1A51
S11350F0FB0A1150F60131966F01CECFDF91CF91AB
S11351001F910F91FF90EF90DF90CF90BF900C9480
S11351108F2EEDA5FEA590818BA980958923808390
S1135120E62EF72E112379F1F70184912B8D3C8D16
S1135130232B39F00E9435271150C70101967C01B9
S1135140F1CF28E030E040E8E9A5FAA599A9582F65
S1135150542319F05081952B03C0508190959523C9
S11351609083EBA5FCA550819AA9952B9083EBA580
S1135170FCA550819AA9909595239083469521503A
S1135180310911F7D9CFDF91CF911F910F91FF9082
S1135190EF90DF90CF90BF900895FC0186819781B6
S11351A09C01295F3F4F37FF02C0295F3F4F83E0D7
S11351B0359527958A95E1F784819581289FA001EB
S11351C0299F500D389F500D112460E070E0878DA9
S11351D090A10C9452338F929F92AF92BF92CF9230
S11351E0DF92EF92FF920F931F93CF93DF93EC0123
S11351F0862EB42EA22E902E8F8D98A1892BE9F4A1
S11352002E813F81C901079697FD079623E0959566
S113521087952A95E1F72C813D81AC01429FC0011D
S1135220439F900D529F900D11240E94233298A306
S11352308F8F892B11F480E092C1CE010E94CD287A
S11352408E819F816C817D8181329105E4F0AC0176
S11352504054510957FF02C04F5F5F4F5595479522
S11352606255710977FF02C06F5F7F4F759567952F
S1135270CC24C394D12C80E4E82EF12C02E510E078
S113528022E430E11BC0AC014052510957FF02C077
S11352904F5F5F4F559547956357710977FF02C07C
S11352A06F5F7F4F75956795CC24C394D12CA0E292
S11352B0EA2EF12C03E710E022E63EE0CE010E9444
S11352C0A5228AA28D8D9E8D009799F0B11007C0FA
S11352D02E813F812032310521F42CE303C02B2D94
S11352E001C02DE329A3992009F436C10E945A2E46
S11352F079C061E08EA10E944B1B61E08FA10E94E6
S11353004B1B8EA1082E000C990BFC01E75FF64F96
S1135310E491F0E0EE0FFF1FE95DF64F2591349123
S11353203EA72DA7FC01EB50F74FE491EBAB8FA107
S1135330082E000C990BFC01E75FF64FE491F0E0B6
S1135340EE0FFF1FE95DF64FA591B491B8ABAFA77F
S1135350FC01EB50F74FE491ECAB8C91E82BEC9310
S11353608B8D9C8D892B31F0992009F43BC00E94D0
S1135370562D38C061E08CA10E944B1B61E08DA1C9
S11353800E944B1B8CA1082E000C990BFC01E75FBB
S1135390F64FE491F0E0EE0FFF1FE95DF64F259123
S11353A034913AA729A7FC01EB50F74FE491E9ABFC
S11353B08DA1082E000C990BFC01E75FF64FE491D8
S11353C0F0E0EE0FFF1FE95DF64FA591B491BCA785
S11353D0ABA7FC01EB50F74FE491EAAB8C91E0955D
S11353E0E823EC93AA20F1F088A587FD1BC061E0B7
S11353F00E944B1B61E088A50E94871B61E070E05E
S113540080E090E00E94831A60E088A50E94871BD8
S11354106AE070E080E090E00E94831A61E088A571
S11354200E94871B8D8D9E8D009739F04DA95EA932
S11354306FA978AD0E946C2E0FC08B8D9C8D892B2B
S113544021F08EAD9FAD0E941B27EFA5F8A9908196
S11354508CA980958923808344E06EE57EE0CE01AB
S11354600E9425286E816150CE010E947D2744E070
S11354706AE57EE0CE010E9425288AA1813011F4DC
S113548060E101C064E1CE010E947D2744E066E54D
S11354907EE0CE010E9425288FE88DAF8C819D810E
S11354A08038910571F48E819F8180349105B9F41F
S11354B08AA1813011F48FE901C08FEC8DAF12E124
S11354C00FC08036910559F48E819F81409739F43D
S11354D08AA1813011F480E101C08FEA8DAF12E01E
S11354E06AEDCE010E947D27612FCE010E947D27A7
S11354F061E8CE010E947D276DADCE010E947D271B
S113550069EDCE010E947D278AA1813011F462E207
S113551001C061EFCE010E947D2746E060E57EE098
S1135520CE010E9425288D8D9E8D009739F049ADBE
S11355305AAD6BAD7CAD0E946C2E0CC0EFA5F8A9E2
S113554090818CA9892B80838B8D9C8D892B11F064
S11355500E943C2781E003C0A11046CF67CFDF91B2
S1135560CF911F910F91FF90EF90DF90CF90BF905C
S1135570AF909F908F9008950F931F93CF93DF93D5
S1135580DC0157FD64C016968D919C9117974817BE
S113559059070CF05CC077FF04C0260F371F60E08A
S11355A070E01496CD91DC911597CB01820F931F77
S11355B0C817D9071CF49E01261B370B12161306B5
S11355C00CF045C0FA0157FD3796CF01E3E09595FD
S11355D08795EA95E1F78C9FF0018D9FF00D9C9FD4
S11355E0F00D11246E0F7F1F5F96ED91FC91909743
S11355F0E60FF71F4770552781E090E001C0880F40
S11356004A95EAF7482F0130110539F078F0023055
S11356101105E9F42E0F3F1F13C02E0F3F1FE21791
S1135620F307A9F08081842B8193F9CF80952E0F05
S11356303F1FE217F30759F0908198239193F9CF14
S1135640E217F30721F0808184278193F9CFDF915A
S1135650CF911F910F910895EF92FF920F931F9393
S1135660CF93DF93EC0177FDA5C0EC80FD806E1530
S11356707F050CF09FC057FF04C0240F351F40E086
S113568050E08E819F81FA01E20FF31F8E179F076E
S11356901CF49C01241B350B121613060CF08AC053
S11356A0922F842F8695869586958E9DD0018F9D09
S11356B0B00D11246A0F7B1FAF8DB8A1A60FB71FC1
S11356C04770B1F188E0841B482F682F70E0FB011C
S11356D0E85BF14FE491281798F4621B71092FEFEE
S11356E030E002C0359527956A95E2F7E223013050
S11356F0110549F078F00230110509F05BC00EC0C5
S11357000130110519F48C91E82B0AC00130110500
S113571008F049C0E0958C91E82302C08C91E827F9
S1135720EC93941708F446C02C813D81A20FB31F5B
S1135730E92FE41BE830F8F00230110561F48E2FF4
S11357409C9190959C932C813D81A20FB31F88500E
S11357508830B0F70FC081E00115110509F480E02D
S113576081959E2F8C932C813D81A20FB31F98505D
S11357709830C0F7E770EE23E9F0F0E0E05CF14F19
S1135780E4910130110539F048F00230110591F42B
S11357908C91E82706C08C91E82B03C0E0958C918E
S11357A0E823EC9307C00230110509F4B7CFAE0D1E
S11357B0BF1DBECFDF91CF911F910F91FF90EF904E
S11357C008950F931F93DC015696EC915697E2309F
S11357D061F0E33009F1E13081F51496ED91FC912B
S11357E01597E41BF50B319723C0DC011496ED915A
S11357F0FC911597DF01A61BB70BBD01DC011696C2
S1135800ED91FC911797DF01A41BB50BAD0141503D
S11358105109621B730B11C0FA01DC0116964D91FC
S11358205C911797DA01A61BB70BBD01621B730BC2
S1135830AB01BF010E942C2B02C00E94BC2A1F9105
S11358400F9108950F931F93DC015696EC91569790
S1135850E23069F0E33011F1E13089F51496ED910D
S1135860FC911597E41BF50BE21BF30B23C0DC0141
S11358701496ED91FC911597DF01A61BB70BBD01A2
S113588061507109DC011696ED91FC911797DF01C7
S1135890A41BB50BAD01421B530B11C0FA01DC0173
S11358A016964D915C911797DA01A61BB70BBD01B3
S11358B061507109AB01BF010E94BC2A02C00E9461
S11358C02C2B1F910F910895CF92DF92EF92FF92AC
S11358D00F931F93CF93DF93EC018D8D9E8D0097D3
S11358E039F04DA95EA96FA978AD0E946C2E0FC046
S11358F08B8D9C8D892B21F08EAD9FAD0E941B2733
S1135900EFA5F8A990818CA980958923808345E02F
S11359106BE37EE0CE010E9425286C816150CE01AC
S11359200E947D272E813F81C901079697FD079626
S113593023E0959587952A95E1F72C813D81829FF7
S11359407001839FF00C929FF00C11240F8D18A10D
S11359508D8D9E8DE00EF11E009709F443C069A160
S1135960062E000C770B0E947A2E8D8D9E8DDC0105
S1135970ED91FC910190F081E02D60E409956801BE
S113598001E010E08D8D9E8DEC14FD0441F1003298
S11359901105B0F00E948F2E69A1062E000C770B22
S11359A08D8D9E8D0E947A2E8D8D9E8DDC01ED91C4
S11359B0FC910190F081E02D60E4099501E010E094
S11359C08D8D9E8DF60161916F01DC01ED91FC914D
S11359D00190F081E02D09950F5F1F4FD3CF0E94F6
S11359E08F2E35C0EDA5FEA590818BA9892B8083D0
S11359F00E151F0561F1F80181918F012B8D3C8DEE
S1135A00232B19F00E943527F3CF28E030E040E83B
S1135A10E9A5FAA599A9582F542319F05081952B7B
S1135A2003C05081909595239083EBA5FCA55081EC
S1135A309AA9952B9083EBA5FCA550819AA99095E2
S1135A409523908346952150310911F7D1CF8D8D3F
S1135A509E8D009771F049AD5AAD6BAD7CADDF9171
S1135A60CF911F910F91FF90EF90DF90CF900C9406
S1135A706C2EEFA5F8A990818CA9892B80838B8D3E
S1135A809C8D892B51F0DF91CF911F910F91FF9045
S1135A90EF90DF90CF900C943C27DF91CF911F9132
S1135AA00F91FF90EF90DF90CF900895CF93CFB7F1
S1135AB0F89480910203811127C0E3E1F9E0849115
S1135AC0EFEFF8E09491E82FF0E0EE0FFF1FEF5CAA
S1135AD0F64FA591B491EC91E92321F461E08AE0B9
S1135AE00E94871B61E08AE00E944B1B8CB5806199
S1135AF08CBD8CB580648CBD61E08DE00E944B1B35
S1135B0061E08BE00E944B1B809102038F5F8093C6
S1135B100203CFBFCF9108958091370390E0209185
S1135B203803821B910908959091380380913703BB
S1135B30981750F4E92FF0E0E75CFC4F208130E047
S1135B409F5F9093380302C02FEF3FEFC901089580
S1135B50E091380380913703E81730F4F0E0E75C14
S1135B60FC4F808190E008958FEF9FEF0895089592
S1135B70CF93DF93EC01E0910F03F0911003309782
S1135B80F1F090913803809137039817C0F090E0BA
S1135B90292F30E02617370754F4DE01A20FB31F74
S1135BA04C91D901A75CBC4F4C939F5FF1CF1092ED
S1135BB0380360933703CB01DF91CF910994DF91D0
S1135BC0CF910895E0911103F0911203309729F0D9
S1135BD0109215031092140309940895CF92DF9242
S1135BE0EF92FF920F931F93CF93DF937C01CB012E
S1135BF08A0120911303222389F0EB016B01C40E67
S1135C00D51ECC15DD0569F06991D701ED91FC91A4
S1135C100190F081E02DC7010995F3CF642F0E9414
S1135C20D82EC801DF91CF911F910F91FF90EF9073
S1135C30DF90CF900895CF93DF931F92CDB7DEB757
S1135C406983209113032223D1F02091140320327D
S1135C5040F021E030E0FC013383228380E090E0D7
S1135C6015C080911503E82FF0E0EA5EFC4F99819E
S1135C7090838F5F809315038093140305C061E0C4
S1135C80CE0101960E94D82E81E090E00F90DF9122
S1135C90CF910895FC011382128288EE93E0A0E074
S1135CA0B0E084839583A683B78383EC91E09183EA
S1135CB080830895109238031092370310921503CD
S1135CC0109214030E94992E82EE9DE20E94052FE9
S1135CD088EB9DE20C94002FCB01BA010C94C42EE6
