:100000000C9467090C948F090C948F090C948F0938
:100010000C948F090C948F090C948F090C948F0900
:100020000C948F090C948F090C948F090C948F09F0
:100030000C948F090C948F090C948F090C948F09E0
:100040000C9427180C948F090C948F090C948F0929
:100050000C948F090C948F090C948F090C948F09C0
:100060000C946D2E0C948F091F1C1814110D0A0688
:10007000080B0F1216191D20050302002324262742
:10008000090C1013171A1E210104070E151B222537
:100090001320121121100722081806091905230A36
:1000A0001A040B1B03240C1C020D1D25010E1E003F
:1000B0000F1F261415271617000102030405060753
:1000C00008090A0B0C0D0E0F2021222324252627B8
:1000D00028292A2B2C2D2E2F88898A8B8C8D8E8F68
:1000E000E916D516C116AD169916851671165D1648
:1000F000651678168B169E16B116C416D716EA1614
:100100004916351621160D16FD1611172517391724
:100110006C1680169416A816BC16D016E416F8169F
:100120001A163F1664168916AE16D316F8161D1742
:10013000052A9B29912987291D29132909299F28E7
:1001400003290C2916291F29892992299C29052A66
:1001500095288B28812817280F2A192A832A8D2A67
:10016000062910291A2984298E299829022A0C2A5D
:100170001D2890280229152987299A290C2A1F2A27
:1001800009000000000100005A00DC00536574748F
:10019000696E67730042616E64205363616E005341
:1001A0006561726368000000000000000000000F3D
:1001B000F000000FF000000FF000000FF000071F2C
:1001C000F8E007FFFFE00FFFFFF00FFFFFF01FFF5A
:1001D000FFF81FFFFFF81FFC3FF81FF81FF807F09C
:1001E0000FE003F00FC003F00FC007F00FE01FF89F
:1001F0001FF81FFC3FF81FFFFFF81FFFFFF80FFF5E
:10020000FFF00FFFFFF007FFFFE0071FF8E0000F10
:10021000F000000FF000000FF000000FF0000000F1
:1002200000000000000000000000000000000000CE
:10023000000000000000003FFC0003FFFFC007FFBC
:10024000FFE03FFFFFFC7FFE7FFEFFFE7FFFFFFE24
:100250007FFF7FFFFFFE7FFFFFFE1FFE7FF81FFE79
:100260007FF80FFE7FF007FE7FE003FE7FC001FEF8
:100270007F8001FE7F8000FE7F00007FFE00003F48
:10028000FC00001FF800001FF8000007E000000756
:10029000E0000003C000000180000000000000003A
:1002A000000000000000000000000000000000004E
:1002B00000000000000000FF800001FFE00003FFDD
:1002C000F00007E3F0000F80F8000F0078000F0047
:1002D0003C000E003C000E003C000E003C000F00F5
:1002E0003C000F0078000F80F80007C1F80007FFFE
:1002F000F80003FFFC0000FFFE00003F1F000000AD
:100300000F80000007C0000003E0000001F00000C3
:1003100000E00000004000000000000000000000BD
:1003200000000000000000000000000000000000CD
:1003300000000000000000000000000000000000BD
:1003400000000000000000000000000000000000AD
:10035000000000000000000000000000000000009D
:10036000000000000000000000000000000000008D
:100370000000000000000000000000000000FC0081
:100380000000003F00000000000000000000FC0032
:100390000000003F00000000000000000000FC0022
:1003A0000000003F00000000000000000000FC0012
:1003B0000000003F00000000000000000000FC0002
:1003C0000000003F00000000000000000000780076
:1003D0000000001E00000000000000000000780087
:1003E0000000001E00000000000000000000780077
:1003F0000000001E00000000000000000000780067
:100400000000001E00000000000000000000780056
:100410000000001E00000000000000000000780046
:100420000000001E00000000000000000000780036
:100430000000001E0000FFFFFBF80FDFFFFF7FFF43
:10044000FBFFFFDFFFFFFFFFFBFC1FDFFFFF7FFF67
:10045000FBFFFFDFFFFFFFFFF9FC1FDFFFFF7FFF59
:10046000FBFFFFDFFFFFFFFFF9FE3F9FFFFF7FFF67
:10047000FBFFFFDFFFFFFFFFF8FE3F9FFFFF7FFF58
:10048000FBFFFFDFFFFFFFFFF8FF7F1FFFFF7FFF87
:10049000FBFFFFDFFFFFFC03F87F7F1F80007F0172
:1004A000FBF00FDFC03FFC03F87FFE1F80007F01E1
:1004B000FBF00FDFC03FFC03F83FFE1F80007F0111
:1004C000FBF00FDFC03FFC03F83FFC1F80007F0103
:1004D000FBF00FDFC03FFC03F81FFC1F80007F0113
:1004E000FBF00FDFC03FFC03F81FF81F80007F0107
:1004F000FBF00FDFC03FFFFFF80FF81FFFFF7FFF8C
:10050000FBF00FDFFFFFFFFFF80FF01FFFFF7FFF84
:10051000FBF00FDFFFFFFFFFF807F01FFFFF7FFF7C
:10052000FBF00FDFFFFFFFFFF807F01FFFFF7FFF6C
:10053000FBF00FDFFFFFFFFFF80FF01FFFFF7FFF54
:10054000FBF00FDFFFFFFFFFF80FF81FFFFF7FFF3C
:10055000FBF00FDFFFFFFDFE001FF800003F7F01F3
:10056000FBF00FDFC03FFCFE001FFC00003F7F01DF
:10057000FBF00FDFC03FFC7F003FFC00003F7F012E
:10058000FBF00FDFC03FFC7F003FFE00003F7F011C
:10059000FBF00FDFC03FFC3F807E7E00003F7F010D
:1005A000FBF00FDFC03FFC3FC07E7E00003F7F01BD
:1005B000FBF00FDFC03FFC1FC0FE7F1FFFFF7FFF70
:1005C000FBFFFFDFFFFFFC0FE0FE7F1FFFFF7FFF52
:1005D000FBFFFFDFFFFFFC0FE1FC3F9FFFFF7FFF03
:1005E000FBFFFFDFFFFFFC07F1FC3F9FFFFF7FFFEB
:1005F000FBFFFFDFFFFFFC07F3F81FDFFFFF7FFFBD
:10060000FBFFFFDFFFFFFC03FBF81FDFFFFF7FFFA8
:10061000FBFFFFDFFFFF0000000000000000000004
:1006200000000000000000000000000000000000CA
:1006300000000000000000000000000000000000BA
:1006400000000000000000000000000000000000AA
:10065000000000000000000000000000000000009A
:10066000000000000000000000000000000000008A
:10067000000000000000000000000000000000007A
:10068000000000000000000000000000000000006A
:10069000000000000000000000000000000000005A
:1006A000000000000000000000000000000000004A
:1006B000000000000000000000000000000000003A
:1006C000000000000000000000000000000000002A
:1006D000000000000000000000000000000000001A
:1006E000000000000000000000000000000000000A
:1006F00000000000000000000000000000000000FA
:1007000000000000000000000000000000000000E9
:1007100000000000000000000000000000000000D9
:1007200000000000000000001980198019801FB827
:100730001F88199019A019B800001008300C7E7E8F
:10074000300C1008000000000000339C4A527B9CD3
:100750004A524B920000000000001008300C7E7ED0
:10076000300C10080000000060C071C07BC07FD852
:100770007FC46EC264C260C060C060C0080C081252
:10078000041E0312000000001E003F0073806198E9
:100790007F847F8261826180618061A20836082A3D
:1007A0000422032200005072657373206D6F64652C
:1007B00020666F720A525353492063616C696272FA
:1007C0006174696F6E005072657373204D4F4445BC
:1007D00020746F20736176652E004D61783A200099
:1007E0004D696E3A2000416C6C20646F6E6521008B
:1007F000342F340A5363616E6E696E6720666F72C0
:1008000020686967686573740A525353492E2E2E07
:10081000005072657373204D4F4445207768656EB4
:100820002072656164792E00332F340A5475726E1C
:10083000206F6E20796F7572205654582E00322F1B
:10084000340A5363616E6E696E6720666F72206C46
:100850006F776573740A525353492E2E2E005072CF
:10086000657373204D4F4445207768656E2072652F
:100870006164792E0052656D6F7665205258206153
:100880006E74656E6E61732E00312F340A5475726A
:100890006E206F666620616C6C20565458732E0073
:1008A000000000080002010000030407000000002F
:1008B000000000000102040810204080010204082A
:1008C0001020010204081020040404040404040499
:1008D00002020202020203030303030300000000FA
:1008E00023002600290000000000250028002B001E
:1008F00000000000240027002A0000000000003E45
:100900005B4F5B3E3E6B4F6B3E1C3E7C3E1C183C7F
:100910007E3C181C577D571C1C5E7F5E1C00183CDB
:100920001800FFE7C3E7FF0018241800FFE7DBE724
:10093000FF30483A060E2629792926407F0505070B
:10094000407F05253F5A3CE73C5A7F3E1C1C080867
:100950001C1C3E7F14227F22145F5F005F5F06092C
:100960007F017F006689956A606060606094A2FF85
:10097000A29408047E040810207E201008082A1C77
:1009800008081C2A08081E101010100C1E0C1E0C43
:1009900030383E3830060E3E0E06000000000000E3
:1009A000005F00000007000700147F147F14242A52
:1009B0007F2A122313086462364956205000080724
:1009C0000300001C2241000041221C002A1C7F1C45
:1009D0002A08083E08080080703000080808080847
:1009E000000060600020100804023E5149453E00AE
:1009F000427F400072494949462141494D3318140C
:100A0000127F1027454545393C4A4949314121115A
:100A100009073649494936464949291E000014004C
:100A2000000040340000000814224114141414146F
:100A3000004122140802015909063E415D594E7CCD
:100A40001211127C7F494949363E414141227F4182
:100A500041413E7F494949417F090909013E4141E0
:100A600051737F0808087F00417F41002040413FCB
:100A7000017F081422417F404040407F021C027FDA
:100A80007F0408107F3E4141413E7F090909063E2F
:100A90004151215E7F0919294626494949320301FE
:100AA0007F01033F4040403F1F2040201F3F403810
:100AB000403F631408146303047804036159494DEB
:100AC00043007F4141410204081020004141417F21
:100AD0000402010204404040404000030708002097
:100AE000545478407F284444383844444428384497
:100AF00044287F385454541800087E090218A4A4CE
:100B00009C787F0804047800447D40002040403DEC
:100B1000007F1028440000417F40007C0478047866
:100B20007C080404783844444438FC1824241818F9
:100B3000242418FC7C080404084854545424040455
:100B40003F44243C4040207C1C2040201C3C403042
:100B5000403C44281028444C9090907C4464544C71
:100B600044000836410000007700000041360800CC
:100B700002010204023C2623263C1EA1A161123A76
:100B80004040207A385454555921555579412254C2
:100B9000547842215554784020545579400C1E52C7
:100BA000721239555555593954545459395554546C
:100BB000580000457C410002457D420001457C40D3
:100BC0007D1211127DF0282528F07C545545002017
:100BD00054547C547C0A097F4932494949323A4489
:100BE00044443A324A4848303A4141217A3A4240F4
:100BF0002078009DA0A07D3D4242423D3D404040C6
:100C00003D3C24FF2424487E4943662B2FFC2F2B98
:100C1000FF0929F620C0887E090320545479410039
:100C200000447D413048484A32384040227A007AB8
:100C30000A0A727D0D19317D2629292F2826292996
:100C4000292630484D4020380808080808080808B8
:100C5000382F10C8ACBA2F102834FA00007B0000DF
:100C600008142A142222142A14085500550055AAE3
:100C700055AA55AAFF55FF55FF000000FF001010B0
:100C800010FF00141414FF001010FF00FF1010F0EC
:100C900010F0141414FC001414F700FF0000FF00FF
:100CA000FF1414F404FC141417101F10101F101F4D
:100CB0001414141F00101010F0000000001F10107A
:100CC00010101F10101010F010000000FF10101076
:100CD000101010101010FF10000000FF140000FF93
:100CE00000FF00001F10170000FC04F4141417107C
:100CF000171414F404F40000FF00F714141414146F
:100D00001414F700F7141414171410101F101F14E4
:100D10001414F4141010F010F000001F101F000045
:100D2000001F14000000FC140000F010F01010FF71
:100D300010FF141414FF141010101F00000000F016
:100D400010FFFFFFFFFFF0F0F0F0F0FFFFFF0000EB
:100D5000000000FFFF0F0F0F0F0F3844443844FC12
:100D60004A4A4A347E02020606027E027E02635529
:100D70004941633844443C04407E201E2006027EE4
:100D8000020299A5E7A5991C2A492A1C4C720172F6
:100D90004C304A4D4D303048784830BC625A463D60
:100DA0003E494949007E0101017E2A2A2A2A2A4415
:100DB000445F444440514A444040444A514000004A
:100DC000FF0103E080FF000008086B6B0836123655
:100DD0002436060F090F0600001818000000101036
:100DE000003040FF0101001F01011E00191D1712F4
:100DF000003C3C3C3C00000000002200FF210000C1
:100E00000103070F1F3F7F0080C0E0F0F8FCFEDB0E
:100E100040A4A62EAF2000A1C8D300408DAED5803F
:100E2000A8000060000000000000000000000000BA
:100E30000000E000000000000000000000000000D2
:100E400001E00000000000000000000000000001C0
:100E5000F00000000000000000000000000003F0AF
:100E60000000000000000000000000000007F0008B
:100E700000000000000000000000000007F8000073
:100E800000000000000000000000000FF80000005B
:100E900003C0007E000001E0007F0FF800000003A7
:100EA000C000FE000001E000FFEFF800000003C0FA
:100EB00000FE000001E000FFFFF800000003C0009A
:100EC000F00000000F007FFE7FC0000003C000F0B4
:100ED0000000000F003FFE7FF83FF1FBCFFCFEF368
:100EE000BC3DEFE01FFE7FFF7FFBFFDFFEFEFFBC90
:100EF0003DEFE01FC6FFFF7FFBFFDFFEFEFFBC3DB7
:100F0000EFE00FE3C7FE787BC3DE1EF0FFBC3DEFD2
:100F10000007FF87FC787BC3DE1EF0F83C3DEF0046
:100F200001FFFFF0007BC3C01EF0F03C3DEF00016D
:100F3000F37FE03FFBC3CFFEF0F03C3DEF0003E367
:100F40003F807FFBC3DFFEF0F03C3DEF0007E73C56
:100F500000787BC3DE1EF0F03C3DEF0007FFBE00D3
:100F6000787BC3DE1EF0F03C3DEF0007FFFE00780B
:100F70007BC3DE1EF0F03C3DEF000FFFFE007FFB69
:100F8000FFDFFEF0F03FFDEFE00FFFFF007FFBFF14
:100F9000DFFEF0F03FFDEFE00FF9FF003E79F9CF03
:100FA0009EF0F01F3DE7E01FF1FF00000000000091
:100FB0000000000000001F80FF007FFFFFFFFFFF19
:100FC000FFFFFFFFE01C007F007FFFFFFFFEB46D0F
:100FD000888D18E000001F007FFFFFFFFE95AD7DAC
:100FE000B577E000000F007FFFFFFFFEA5AD9D8DF0
:100FF00019E0000006007FFFFFFFFEB5ADEDB57EF6
:10100000E00000000000018000000000000000007F
:1010100000038000000000000000000007C0000086
:101020000000000000000007C000000000000000F9
:1010300000000FC00000000000000000001FE000E2
:1010400000000000000000001FE0000000000000A1
:101050000000003FE00000000000000000003FF042
:101060000000000000000000007FF0000000000011
:1010700000001FF87FF0000000000000003FFE7F2E
:10108000F0000000000000003FFF7FF000000000C3
:101090000000001FFFFBE0000000000000000FFF49
:1010A000F9FFC00000000000000FFFF9FFF800008A
:1010B0000000000007FFF1FFFF0000000000000338
:1010C000FC73FFFF80000000000001FE3FFFFF8077
:1010D000000000000000FF1E0FFF000000000000E5
:1010E000007FFE1FFC000000000000003FFFFFF833
:1010F000000000000000000FDFFFE0000000000023
:1011000000001F19FFC0000000000000003F3CFF6E
:1011100000000000000000007E7CF80000000000DD
:101120000000007FFE7C0000000000000000FFFFC8
:10113000FC0000000000000000FFFFFE00000000B7
:1011400000000000FFFFFE0000000000000001FFA3
:10115000EFFE0000000000000001FFCFFE000000D5
:101160000000000003FF07FE000000000000000375
:10117000FC07FE0000000000000003F003FE00007A
:101180000000000000018000FE00000000000000E0
:101190000000007E000000000000000000003E0093
:1011A0000000000000000000000C00000000000033
:1011B000078000FC000003C0000000078001FC0065
:1011C0000003C0000000078001FC000003C0000015
:1011D00000078001E00000001E000000078001E021
:1011E0000000001E007FE3F79FF9FDE7787BDFC07A
:1011F000FFF7FFBFFDFDFF787BDFC0FFF7FFBFFDFF
:10120000FDFF787BDFC0F0F787BC3DE1FF787BDE38
:1012100000F0F787BC3DE1F0787BDE0000F78780C7
:101220003DE1E0787BDE007FF7879FFDE1E0787BA2
:10123000DE00FFF787BFFDE1E0787BDE00F0F78797
:10124000BC3DE1E0787BDE00F0F787BC3DE1E07873
:101250007BDE00F0F787BC3DE1E0787BDE00FFF746
:10126000FFBFFDE1E07FFBDFC0FFF7FFBFFDE1E077
:101270007FFBDFC07CF3F39F3DE1E03E7BCFC0000E
:1012800000000000000000000000FFFFFFFFFFFF64
:10129000FFFFFFFFC0FFFFFFFFFD68DB111A31C03A
:1012A000FFFFFFFFFD2B5AFB6AEFC0FFFFFFFFFDB3
:1012B0004B5B3B1A33C0FFFFFFFFFD6B5BDB6AFD3F
:1012C000C000640B5A0C390E1615B12C1B151124D5
:1012D0001FBECFEFD8E0DEBFCDBF11E0A0E0B1E090
:1012E000E6E3F3E602C005900D92A23DB107D9F7FF
:1012F00023E0A2EDB1E001C01D92A93AB207E1F7E7
:1013000019E0C6E6D9E004C02197FE010E943C30F6
:10131000C136D107C9F70E9475170C948E310C9411
:1013200000000F931F93CF93DF93182F062FC6ED66
:10133000D1E0E991F991309719F0602F812F09954B
:1013400081E0CE3DD807A9F7DF91CF911F910F9192
:101350000895CF92DF92EF92FF920F931F93CF9356
:10136000DF93082FEB01842F0E94D51911E0892B00
:1013700009F010E08C81181731F00E947118688311
:1013800079838A839B831C838D811817B9F10E940E
:101390007118C880D980EA80FB80DC01CB018C19F0
:1013A0009D09AE09BF0984369105A105B10530F14B
:1013B0001D83CE80DF80E884F9840E9471186E83DB
:1013C0007F83888799876093D2017093D30180933C
:1013D000D4019093D5012D81211113C0DC01CB01E3
:1013E0008C199D09AE09BF09843F21E09207A10530
:1013F000B10520F560E0802F0E9491098D8188233E
:1014000021F10E947118CE80DF80E884F984DC012C
:10141000CB018C199D09AE09BF09803D9740A105FC
:10142000B10598F062E0802FDF91CF911F910F916D
:10143000FF90EF90DF90CF900C949109803D974002
:10144000A105B10510F461E0D6CFDF91CF911F91D6
:101450000F91FF90EF90DF90CF90089542E06EEDF6
:1014600071E080E00E94A90944E068EE71E081E04B
:101470000E94A90943E062EF71E082E00E94A9099D
:1014800045E06CEF71E083E00C94A909E6EDF1E032
:1014900020E030E041915191452B41F4220F331F60
:1014A000F901EA52FE4F9183808308952F5F3F4FE9
:1014B0002430310579F70895E82FF0E0EE0FFF1F93
:1014C000E05DFE4F859194910895E82FF0E0EE0FD6
:1014D000FF1FE052FF4F859194910895E82FF0E0AF
:1014E000E854FF4FE491A6E0B2E08E2F86958695F2
:1014F00086958F5B8C93E770EF5C1196EC93119758
:1015000012961C921297CD010895E82FF0E0E05753
:10151000FF4F84910895E82FF0E0E859FF4F849140
:101520000895FC01A9E0B2E090E08491882351F095
:101530009F012F5F3F4F903329F0E491ED939F5F20
:10154000F901F3CFE92FF0E0E75FFD4F108289E06A
:1015500092E00895CF93C82F0E945C0A0E94DC0B92
:1015600080E492E00E94C114C0936202CF9108957A
:10157000CF93C82F61E08EE00E94A619C09363024A
:10158000CF91089580E492E00C94A214AF92BF92A0
:10159000CF92DF92EF92FF920F931F93CF9384E14C
:1015A0000E94241984E10E94241990936002809380
:1015B0005F02E0906E02F0906F0200E010E0209178
:1015C0006C0230916D0240E050E0BC0180E090E0A0
:1015D0001F921F921F92C4E6CF93A12CB12C6501DC
:1015E0000E94FE190F900F900F900F9097FD3EC034
:1015F000E0906E02F0906F0200E010E020916C022B
:1016000030916D0240E050E060915F0270916002A5
:1016100080E090E01F921F921F92CF930E94FE19CC
:101620000F900F900F900F90653671058105910511
:10163000FCF4E0906E02F0906F0200E010E0209168
:101640006C0230916D0240E050E060915F02709159
:10165000600280E090E01F921F921F92CF930E9441
:10166000FE190F900F900F900F9003C060E001C023
:1016700064E66093610289E392E00E94A2148823E9
:1016800081F0E7E4F2E08181819382E0EE35F807B2
:10169000D1F78091610280935E0289E392E00E941B
:1016A000C114CF911F910F91FF90EF90DF90CF90D9
:1016B000BF90AF900895089580E492E00E94A21434
:1016C00081110C94C60A089569E170E080E492E00B
:1016D0000E948B1462E370E089E392E00C948B1417
:1016E000CF93C82F60E08DE00E94A61981E090E0C2
:1016F0000E94DE186C2F8BE00E94A61981E090E01A
:101700000E94DE1861E08DE00E94A61981E090E061
:101710000E94DE1860E08DE00E94A61981E090E052
:10172000CF910C94DE188F929F92AF92BF92CF927E
:10173000DF92EF92FF92CF93C82E4A015B0160E0E7
:101740008CE00E94A61981E090E00E94DE18D12C66
:10175000E12CF12CC4E08C2D81700E94700BF6946A
:10176000E794D794C794C150B1F781E00E94700B01
:10177000C4E1882D81700E94700BB694A794979451
:101780008794C150B1F761E08CE00E94A61981E016
:1017900090E00E94DE1860E08DE00E94A61960E0F3
:1017A0008BE0CF91FF90EF90DF90CF90BF90AF9004
:1017B0009F908F900C94A619AC0160E070E081E0DE
:1017C0000C94930BFF920F931F93CF93DF938C0195
:1017D000C0E0D0E0F801F1908F01CE010E94783195
:1017E000F81621F06F2DCE010E9480312196CC3069
:1017F000D10581F7DF91CF911F910F91FF9008954F
:10180000CF93DF9320917002222391F0EC0181E7C6
:1018100092E00E94A214882359F01092700281E78E
:1018200092E00E94C114CE01DF91CF910C94E20BA3
:10183000DF91CF91089581E0809370020895CF9356
:10184000DF93EC014CE050E060E871E00E94683109
:10185000CE01DF91CF910C94E20BEF92FF920F93A8
:101860001F93CF93DF938C017C01C0E0D0E0CE01C9
:101870000E947831F70181937F012196CC30D10508
:10188000B1F7F80180819181A281B3810997A10507
:10189000B10549F0C801DF91CF911F910F91FF90E1
:1018A000EF900C941F0CDF91CF911F910F91FF903F
:1018B000EF90089568E873E181E792E00C948B144F
:1018C00090918802943039F0823029F4623019F412
:1018D00084E00C94670D089561E08DE00E946A1920
:1018E00061E086E00E946A1962E082E00E946A1963
:1018F00062E083E00E946A1962E084E00E946A1953
:1019000062E085E00E946A1961E08EE00E946A1937
:1019100062E084E10E946A1961E08CE00E946A1929
:1019200061E08BE00E946A1961E08DE00E946A1913
:1019300061E08CE00E94A61960E08DE00E94A6198B
:1019400060E08BE00C94A61984E692E00E942D0CD6
:10195000809168020C94AA0A0E946C0C61E08DE0F0
:101960000E94A61960E086E00E94A6190E94A40CBD
:101970000E94140D0E945B0B0E94D61480E00E940E
:10198000B80A60E08DE00E94A61961E086E00E943E
:10199000A61980E69CE00E94460A81E00C94670D3F
:1019A0000F931F930E945C0B0E942E0A0E94180D39
:1019B0000E94FB1484E692E00E94000C8091880251
:1019C00082508230D0F00E9471180091D2011091A3
:1019D000D3012091D4013091D501DC01CB01801BD2
:1019E000910BA20BB30B813C964CAF4FBF4F28F02D
:1019F00083E01F910F910C94670D1F910F91089533
:101A0000089508950895462FA0918902B0918A0201
:101A1000109749F0ED91FC9111970284F385E02D28
:101A2000682FCD010994089583E09DE00C94460A47
:101A30008091890290918A02009709F447C0DC01E5
:101A4000ED91FC910680F781E02D099580917F0250
:101A5000811109C068E270E088E792E00E948B146F
:101A600081E080937F028091890290918A02892B84
:101A700069F180918D02882349F188E792E00E9404
:101A8000A214811101C0089580918B02882369F00E
:101A90008091890290918A02DC01ED91FC91019084
:101AA000F081E02D099510928B028091890290912E
:101AB0008A02DC01ED91FC910280F381E02D099511
:101AC00010928D0288E792E00C94C1140895CF9390
:101AD000DF93C82F8091890290918A02009739F094
:101AE000DC01ED91FC910084F185E02D0995809158
:101AF000880280938702C0938802C33009F453C0E0
:101B0000D0F4C13061F1C23009F092C08CE290E0B3
:101B10000E9484172CE2EC0119922A95E9F72BE038
:101B200031E0FC0131832083349628E2DF011D92ED
:101B30002A95E9F778C0C53009F46CC008F44DC0A7
:101B4000C63009F075C084E090E00E948417FC0163
:101B5000128213828BE591E09183808356C087E2E5
:101B600090E00E948417FC0187E2DF011D928A95B4
:101B7000E9F78BE391E091838083C383178210861A
:101B800011861286C387DF011C9680E1ED01199250
:101B90008A95E9F7178E168E11A210A212A213A22F
:101BA000F58FE48F32C08AE090E00E948417EC0148
:101BB0008AE0FE0111928A95E9F72BE231E0DE011D
:101BC0002D933D93CD0168EB7BE00E948B14198629
:101BD000D0938A02C09389022FC08EE190E00E94C8
:101BE0008417FC018EE1EF0119928A95E9F7DF0174
:101BF0008BE191E08D939D9388E1ED0119928A9597
:101C0000E9F7138E128E158E148EF0938A02E093EC
:101C1000890212C082E090E00E9484172BE431E038
:101C2000FC013183208390938A028093890204C04F
:101C300010928A02109289028091890290918A0200
:101C40000097A1F0DC01ED91FC910480F581E02D7D
:101C500009958091890290918A02EC01E881F981CD
:101C60000190F081E02DDF91CF910994DF91CF9128
:101C7000089580918802809387020895FC01128262
:101C80002091620223830895FC0183810C94AA0AA7
:101C9000CF93DF93EC010E94C20A8823B1F08A81BE
:101CA00090E0FE01E80FF91F209161022483019664
:101CB00068E270E00E94AA2F8A830E94850A0E942F
:101CC000AA0ADF91CF910C940A15DF91CF91089564
:101CD0000F931F93CF93DF930E94061501E010E04E
:101CE00028E330E040E050E060E070E08EE892E011
:101CF0000E94412A28E330E040E050E06FE770E0C6
:101D00008EE892E00E94412A20E830E047E350E06C
:101D100060E070E08EE892E00E94002A2FE430E05C
:101D20004FE350E068E170E08EE892E00E94002A04
:101D300029E030E047E350E068E170E08EE892E0AF
:101D40000E94412A29E030E047E350E067E670E076
:101D50008EE892E00E94412A61E08EE892E00E94C3
:101D60007A24CEE8D2E081E090E09B8B8A8B998B3D
:101D7000888B1D861C8609E310E01F870E8780E094
:101D80000E94850A0E94650A4AE050E0BC01CE012B
:101D90000E94211889E690E09D878C871F870E8717
:101DA00087E20E94850A0E94650A4AE050E0BC0171
:101DB000CE010E942118DF91CF911F910F910C94B9
:101DC0000E15CF92EF92FF920F931F93CF93DF9355
:101DD000EC0127E3C22E3EE7E32E00E021E044E6DB
:101DE00068E204960E946E1501E010E020E830E001
:101DF00047E350E060E070E08EE892E00E94002A45
:101E000025E030E04CE450E069E370E08AE190E0E6
:101E10000E945B158A812CE4829FC001112468E234
:101E200070E00E94AA2F6F5F262F30E0EE24E3942B
:101E3000F12C05E010E049E350E06AE170E08EE843
:101E400092E00E94931BDF91CF911F910F91FF9021
:101E5000EF90CF900C940E15CF93DF93EC01229668
:101E6000CE010E94141626E53FE046EA52E06FE9F3
:101E700071E0CE010E941A1623E53FE046E252E0EF
:101E800065E971E0CE010E941A1620E53FE046EABE
:101E900051E06CE871E0CE01DF91CF910C941A16FD
:101EA00085E00C94670D82E00C94670D81E00C9442
:101EB000670D411112C0613041F018F0623051F0ED
:101EC000089502960E94401603C002960E943216A0
:101ED0000C940A1502960C944E160895CF92DF9238
:101EE000EF92FF920F931F93CF93DF9302960E947E
:101EF0005D16EC01888199810E94910AFC01019094
:101F00000020E9F731978F01081B190B62E08EE87A
:101F100092E00E947A2481E090E09093A102809365
:101F2000A00290939F0280939E022AEF2003F0016B
:101F30001124FF96F0939B02E0939A028EE290E0C8
:101F400090939D0280939C02888199810E94910ABE
:101F5000BC018EE892E00E94C9178C819D81892B7B
:101F6000E1F020E230E040E250E067E070E08FE234
:101F700090E00E945B152C813D81CC24C394D12C30
:101F800090E2E92EF12C00E210E047E050E06FE231
:101F900070E08EE892E00E94C420DF91CF911F9103
:101FA0000F91FF90EF90DF90CF900895AF92BF9286
:101FB000CF92DF92EF92FF920F931F93CF93DF9315
:101FC000EC010E940615CE010E946E0FAA24A39474
:101FD000B12C91E2C92ED12C2FE7E22EF12C05E293
:101FE00010E02DE730E041E250E06BE770E08EE872
:101FF00092E00E94E21E3DE1C32ED12C09E110E0E7
:102000002DE730E04DE150E06BE770E08EE892E0C4
:102010000E94E21EDF91CF911F910F91FF90EF90F0
:10202000DF90CF90BF90AF900C940E15CF93DF93BD
:10203000EC0122E130E040E850E06EE270E080E048
:1020400090E00E945B15CE010E946E0FDF91CF9150
:102050000C940E1521E0FC0121870895DC01ED911F
:10206000FC910190F081E02D09940F931F93CF9381
:10207000DF93EC018C010E5F1F4FC8010E94A21478
:10208000882369F0C8010E94C114998581E08927DD
:102090008987DF91CF911F910F910C940A15DF91E1
:1020A000CF911F910F910895809187020C94670D35
:1020B000CF92DF92EF92FF920F931F93CF93DF9314
:1020C000EC010E9406158985882399F0CC24C394DD
:1020D000D12C90E4E92EF12C00E810E026E233E068
:1020E00040E050E060E070E08EE892E00E94C420A2
:1020F00040C081E090E09093A1028093A002909371
:102100009F0280939E0266E08EE892E00E947A240D
:102110008EE190E090939B0280939A0282E090E09F
:1021200090939D0280939C02809162020E946E0AAD
:10213000BC018EE892E00E94C91762E08EE892E04E
:102140000E947A2486E290E090939B0280939A0208
:1021500080E390E090939D0280939C0280916202C4
:102160000E94650A4AE050E0BC018EE892E00E94BD
:102170002118DF91CF911F910F91FF90EF90DF9089
:10218000CF900C940E15FC0184A1811103C086E848
:1021900097E0089586E697E00895FC0185A18823DD
:1021A00031F0813019F426E437E003C0089526E2C7
:1021B00037E0C90108951F93CF93DF93EC018DA100
:1021C000811109C011E01DA38EA10E94850A8EA372
:1021D00010936B0207C01DA28EA10E948B0A8EA3D2
:1021E00010926B0284E692E0DF91CF911F910C94E4
:1021F0001B0CFC0184A191E0982794A390936A02A0
:1022000084E692E00C941B0C0F931F93CF93DF9303
:10221000EC018C01045F1F4F49EF50E163EC70E16A
:10222000C8010E9469164BED50E16DEC70E1C801E8
:102230000E94691681E090916A02911101C080E0CC
:102240008CA381E090916B02911101C080E08DA37D
:10225000813019F48091680204C0809168020E9464
:102260008B0A8EA3DF91CF911F910F9108951F9339
:10227000CF93DF93EC018D818823B1F18E819EA1F4
:10228000282F291BFE01E20FF11D309161023783D7
:102290008F5F8E83243010F48832F8F0FE01379679
:1022A00080E010E020E03191231710F4182F232F45
:1022B0008F5F8430C1F7190F1EA3812F0E94850AFA
:1022C0000E94AA0A812F0E94850A8093680284E6F0
:1022D00092E00E941B0C1D822EC00E94850ADF9195
:1022E000CF911F910C94AA0A8A81882321F18C81B5
:1022F0009EA181110DC080916102803548F01A8243
:1023000081E08D839E831F82188619861A8613C0EA
:102310008B81890F8F3F11F487E202C0883210F45D
:102320008EA301C01EA28EA10E94850A0E94AA0A45
:102330008C8181111C82DF91CF911F910895FC0146
:1023400024A1211102C00E9437110C940A15CF93C9
:10235000FC0185A1811105C086A10E94850AC82FB4
:1023600001C0C6A18C2F0E94AA0AC093680284E60D
:1023700092E0CF910C941B0C0F931F93CF93DF939C
:10238000EC01162F042F0C960E947D1681112CC093
:102390008CA181110EC0011127C0123029F181E0FA
:1023A0008A838C83112311F08FEF01C081E08B832E
:1023B0001BC00D7FC9F48EA1111102C08F5F03C035
:1023C000113011F481508EA38EA18F3F19F487E252
:1023D0008EA303C0883208F01EA2CE01DF91CF91F8
:1023E0001F910F910C94A711DF91CF911F910F9125
:1023F0000895CF92DF92EF92FF920F931F93CC2418
:10240000C394D12C92E0E92EF12C07E010E027E3F1
:1024100030E047E250E060E070E08EE892E00E9439
:10242000F71D23E030E040E450E060E070E08BE333
:1024300090E01F910F91FF90EF90DF90CF900C9460
:102440001F1565E08EE892E00E947A24EEE8F2E043
:1024500081E090E0938B828B918B808B1586148624
:1024600017861686809162020E946E0ABC018EE871
:1024700092E00C94C91762E08EE892E00E947A2400
:10248000EEE8F2E081E090E0938B828B918B808B81
:1024900086E090E09587848782E390E0978786873F
:1024A000809162020E94650A4AE050E0BC018EE819
:1024B00092E00C942118CF92EF920F938FE3C82EE5
:1024C00095E4E92E00E02DE344E668E187E492E03C
:1024D0000E946E150F91EF90CF900895EF92FF92AA
:1024E0000F931F93FC0186A1F3E38F9FC00111247A
:1024F00068E270E00E94AA2F9B013327EE24E39448
:10250000F12C03E010E049E250E062E070E08EE878
:1025100092E00E94931B1F910F91FF90EF900895FE
:10252000CF93DF93EC010E940615CE010E94F911B2
:10253000CE010E942112CE010E943B12CE010E94C8
:102540006E12CE010E945B12DF91CF910C940E159A
:10255000CF93DF93EC0123E230E04BE350E060E007
:1025600070E080E090E00E945B152EE030E04BE3ED
:1025700050E062E370E080E090E00E945B1523E0B1
:1025800030E043E350E069E270E082E090E00E94D6
:102590005B15CE010E942112CE010E943B12CE019A
:1025A0000E946E12CE010E945B12CE010C960E9418
:1025B000C916DF91CF910C940E150895623019F46D
:1025C00086E00C94670D08950E94061561E08EE880
:1025D00092E00E947A24EEE8F2E0158614861786CF
:1025E000168686EA97E00E94910ABC018EE892E086
:1025F0000E94C9170C940E15FC01128208950C94C8
:102600000A150F931F93CF93DF93EC010E940615D9
:102610008A81823009F4C2C0B0F4882309F488C0EA
:10262000813009F0F4C061E08EE892E00E947A24E3
:1026300010929B0210929A0210929D0210929C029C
:102640008EE398E0DDC0833009F4CBC0843009F01C
:10265000DEC061E08EE892E00E947A2410929B0234
:1026600010929A0210929D0210929C0286EE97E0C0
:102670000E94910ABC018EE892E00E94C917109254
:102680009B0210929A02CEE0D0E0D0939D02C093BC
:102690009C0280EE97E00E94910ABC018EE892E0D5
:1026A0000E94C9170EE110E010939B0200939A025A
:1026B000D0939D02C0939C0260916C0270916D0258
:1026C0004AE050E08EE892E00E94211810929B02AE
:1026D00010929A02C6E1D0E0D0939D02C0939C0272
:1026E0008AED97E00E94910ABC018EE892E00E9478
:1026F000C91710939B0200939A02D0939D02C09336
:102700009C0260916E0270916F024AE050E08EE888
:1027100092E00E94211810929B0210929A0288E384
:1027200090E090939D0280939C0286EC97E068C0B5
:1027300061E08EE892E00E947A2410929B0210924F
:102740009A0210929D0210929C0289E898E00E94E1
:10275000910ABC018EE892E00E94C91710929B0278
:1027600010929A0280E190E090939D0280939C02E7
:1027700085E798E00E94910ABC018EE892E00E94F1
:10278000C91710929B0210929A0288E390E09093EE
:102790009D0280939C028EE598E032C061E08EE855
:1027A00092E00E947A2410929B0210929A02109258
:1027B0009D0210929C0288E298E00E94910ABC015E
:1027C0008EE892E00E94C91710929B0210929A0222
:1027D00088E390E090939D0280939C0281E198E0D1
:1027E0000FC061E08EE892E00E947A2410929B0272
:1027F00010929A0210929D0210929C0280EF97E034
:102800000E94910ABC018EE892E00E94C917DF91F4
:10281000CF911F910F910C940E15623059F5411113
:1028200029C0FC018281823089F08430D1F081118D
:102830001FC081E08283138280E00E94AA0A8FEF8A
:102840009FEF90936D0280936C0212C083E08283AD
:10285000138280E00E94AA0A10926F0210926E0208
:1028600007C084E692E00E94E20B84E00E94670DBC
:102870000C940A150895CF93DF93EC010E94C20ACD
:10288000882309F445C08A81813019F0833089F0AA
:102890001FC080915F029091600220916C02309184
:1028A0006D0282179307A0F490936D0280936C02DF
:1028B0000FC080915F029091600220916E02309172
:1028C0006F022817390720F490936F0280936E02ED
:1028D0008091620290E0019668E270E00E94AA2F67
:1028E0000E94AA0A80916202811112C08B818F5FBF
:1028F0008B83833069F48A81813021F0833021F425
:1029000084E001C082E08A83DF91CF910C940A15A4
:10291000DF91CF910895CF93DF93EC017D836C839A
:102920000E9471182C813D81DC01CB01820F931F25
:10293000A11DB11D88839983AA83BB831E82DF9169
:10294000CF9108950F931F93CF93DF93FC012681BE
:1029500021110FC0EC010E947118088119812A8190
:102960003B81601771078207930728F081E08E830F
:1029700003C081E001C080E0DF91CF911F910F91F2
:102980000895CF93DF93EC010E9471182C813D8153
:10299000DC01CB01820F931FA11DB11D8883998398
:1029A000AA83BB831E82DF91CF9108950F93CF93AB
:1029B000DF9301E021E04CE362E08EE892E00E94C8
:1029C0000A27CEE8D2E081E090E09B8B8A8B998B3E
:1029D000888B61E0CE010E947A241F8ACE010E947A
:1029E000EC2621E040E062E0CE010E940A27DF9160
:1029F000CF910F91089580918C02882331F08EE859
:102A000092E00E94832A10928C0208958EE892E050
:102A10000C94EC2681E080938D02089581E08093F0
:102A20008C02089581E080938B0208956FEF8EE809
:102A300092E00C946C258EE892E00C9490256F92B5
:102A40007F928F929F92AF92BF92CF92DF92EF923E
:102A5000FF920F931F93CF93DF933C015B014A01D9
:102A60007901690137FF03C08FEFC81AD80AD594DE
:102A7000C794C0E0D0E08C169D0674F0AE014A0DFC
:102A80005B1D02E010E09601B3018EE892E00E9427
:102A9000412ACE0DDF1DEFCFDF91CF911F910F9116
:102AA000FF90EF90DF90CF90BF90AF909F908F906E
:102AB0007F906F900895EF92FF920F931F93E12CF8
:102AC000F12C89019A01AB01BC018EE892E00E94D1
:102AD000931B1F910F91FF90EF9008952F923F92BB
:102AE0004F925F926F927F928F929F92AF92BF921E
:102AF000CF92DF92EF92FF920F931F93CF93DF93CA
:102B000000D000D0CDB7DEB73C016983342E2B83D3
:102B10004E2C512CA02EB12C2C2D30E02F5F3F4F8E
:102B2000A20141505109B501EB818E2F90E00E9426
:102B30005B156981262F30E0490171E0871A910801
:102B4000C201B4010E94AA2F6A83689DE018112473
:102B5000F12C8FEFE81AF80AF594E794DE2CEB815C
:102B6000212C432C512CB901625071097C836B8359
:102B7000222D30E0281539050CF03FC0D301A20FFB
:102B8000B31F8C91381608F4832D1196FC913F16D3
:102B900008F4F32DC89EC0011124B2010E94AA2F8F
:102BA0004C2D461BCF9EC0011124B2010E94AA2FBA
:102BB0009C2D961B222039F06B817C8126173707CC
:102BC00011F080E001C08D2D7A81870F8E0F8983EF
:102BD0008501090F111D282F30E0C501840F911DBB
:102BE000AC016E2F70E0EE24E394F12C8EE892E0BD
:102BF0000E94F51B2394E981BBCF0F900F900F909B
:102C00000F90DF91CF911F910F91FF90EF90DF9088
:102C1000CF90BF90AF909F908F907F906F905F907C
:102C20004F903F902F900895FC01118E108E138EBF
:102C3000128E0895CF93FC01A08DB18DC6E0CA9F7E
:102C4000F001CB9FF00D1124E80FF91F7183608311
:102C500055834483338322831196FC01B18FA08F67
:102C6000CF910895FC01828D938D0196938F828F71
:102C7000208D318D8217930714F0138E128E0895D4
:102C8000FC01828D938D0197938F828F97FF05C0F2
:102C9000808D918D0197938F828F0895FC01428DD5
:102CA000538D66E0649F9001659F300D1124E20F03
:102CB000F31F0280F381E02D0994FC01428D538DB6
:102CC00066E0649F9001659F300D1124820F931F71
:102CD0000895FC0122893389F901EE0FFF1FEE0FE1
:102CE000FF1FE80FF91F71836083538342832F5FB7
:102CF0003F4FFC01338B228B08951F93CF93DF93BB
:102D0000EC01623089F4413079F48E8948274E8B8A
:102D1000411102C00E9412151E89111102C011E05A
:102D200033C080E18F8B30C01E89112369F161307F
:102D3000F9F088F0623041F5EC89FD89EE0FFF1F54
:102D4000EE0FFF1FEC0FFD1F0280F381E02D88893D
:102D50009989099519C08C899D8901979D8B8C8BC8
:102D600097FFDDCF8A899B8901979D8B8C8B0CC047
:102D70008C899D8901969D8B8C8B2A893B89821732
:102D800093076CF21D8A1C8A812FDF91CF911F91CE
:102D900008957F928F929F92AF92BF92CF92DF92CF
:102DA000EF92FF920F931F93CF93DF93EC018E89E5
:102DB000882309F48BC08F89882331F0845087FDE4
:102DC00002C08F8B01C01F8A6F89062E000C770B03
:102DD00060597F4FE12CF12C00E410E020E130E05D
:102DE00040E050E08EE892E00E94931B6F89062E2F
:102DF000000C770B61597F4F01E010E020E430E0D8
:102E000040E050E08EE892E00E94412A8A899FE1EA
:102E1000892E28E0829F80181124712C912CA72CD8
:102E2000B12C8A899B89A816B9060CF04FC08C89F1
:102E30009D89A816B906C9F4A50164E0440F551F81
:102E40006A95E1F7480D591D6F89062E000C770B26
:102E500060597F4FEE24E394F12C00E110E020E173
:102E600030E08EE892E00E94931BCC24C394D12CD6
:102E70008C899D898A159B0511F4C12CD12CF501F3
:102E8000EE0FFF1FEE0FFF1FEC0FFD1F0190F081F3
:102E9000E02D888999890995A50124E0440F551FE3
:102EA0002A95E1F7480D591D6F89062E000C770B06
:102EB00060597F4F30E1E32EF12C00E110E09C01DE
:102EC0008EE892E00E94C4207394A9CFDF91CF9145
:102ED0001F910F91FF90EF90DF90CF90BF90AF9038
:102EE0009F908F907F90089508950E94E9180E9406
:102EF00074170E94AC0CC0E0D0E00E94D00C209768
:102F0000E1F30E940000F9CF0C94423080E090E0A1
:102F100008950895CF92DF92EF92FF920F931F933F
:102F2000CF93DF936C017A018B01C0E0D0E0CE1526
:102F3000DF0581F0D8016D918D01D601ED91FC91F5
:102F40000190F081E02DC6010995892B11F02196A1
:102F5000EECF7E01C701DF91CF911F910F91FF90BE
:102F6000EF90DF90CF9008956115710579F0FB0126
:102F700001900020E9F73197AF01461B570BDC01A8
:102F8000ED91FC910280F381E02D099480E090E0C6
:102F900008950C94B4178F929F92AF92BF92EF92C4
:102FA000FF920F931F93CF93DF93CDB7DEB7A19717
:102FB0000FB6F894DEBF0FBECDBF7C01FA01CB0186
:102FC00019A2223008F42AE08E010F5D1F4F822ED5
:102FD000912CA12CB12CBF01A50194010E94BE2F00
:102FE000F901CA01015011096A3010F4605D01C095
:102FF000695CD8016C93232B242B252B61F7B80136
:10300000C7010E94B417A1960FB6F894DEBF0FBE99
:10301000CDBFDF91CF911F910F91FF90EF90BF90A7
:10302000AF909F908F9008952115310541F4DC01F8
:10303000ED91FC910190F081E02D642F09940C94A6
:10304000CB179A01AB0160E070E00C9414181F924A
:103050000F920FB60F9211242F933F938F939F934C
:10306000AF93BF938091CF029091D002A091D102F3
:10307000B091D2023091CE0223E0230F2D3720F4FD
:103080000196A11DB11D05C026E8230F0296A11DC2
:10309000B11D2093CE028093CF029093D002A093D3
:1030A000D102B093D2028091D3029091D402A09128
:1030B000D502B091D6020196A11DB11D8093D30215
:1030C0009093D402A093D502B093D602BF91AF9152
:1030D0009F918F913F912F910F900FBE0F901F9056
:1030E00018952FB7F8946091CF027091D00280911B
:1030F000D1029091D2022FBF08953FB7F8948091EA
:10310000D3029091D402A091D502B091D60226B5F7
:10311000A89B05C02F3F19F00196A11DB11D3FBF0F
:10312000BA2FA92F982F8827820F911DA11DB11D9D
:10313000BC01CD0142E0660F771F881F991F4A9599
:10314000D1F708958F929F92AF92BF92CF92DF9264
:10315000EF92FF926B017C010E947D184B015C0194
:10316000C114D104E104F10401F10E94B72C0E94C2
:103170007D18DC01CB0188199909AA09BB09883E91
:103180009340A105B10560F321E0C21AD108E1081E
:10319000F10888EE880E83E0981EA11CB11CC114B2
:1031A000D104E104F10419F7DBCFFF90EF90DF9039
:1031B000CF90BF90AF909F908F90089582309105EF
:1031C00038F0880F991F880F991F05970197F1F71D
:1031D0000895789484B5826084BD84B5816084BD8F
:1031E00085B5826085BD85B5816085BDEEE6F0E080
:1031F000808181608083E1E8F0E0108280818260DC
:103200008083808181608083E0E8F0E0808181605C
:103210008083E1EBF0E0808184608083E0EBF0E08C
:10322000808181608083EAE7F0E080818460808330
:1032300080818260808380818160808380818068DA
:1032400080831092C10008958E3008F08E50209136
:10325000060190E4299F900111248770822B8093AE
:103260007C0080917A00806480937A0080917A005B
:1032700086FDFCCF809178002091790090E0922B20
:103280000895833081F028F4813099F08230A1F0E4
:1032900008958730A9F08830B9F08430D1F4809156
:1032A00080008F7D03C0809180008F7780938000A5
:1032B000089584B58F7702C084B58F7D84BD08954D
:1032C0008091B0008F7703C08091B0008F7D809394
:1032D000B0000895CF93DF9390E0FC01EC54F74FDA
:1032E0002491FC01E853F74F8491882361F190E029
:1032F000880F991FFC01E051F74FC591D491FC0153
:10330000EA51F74FA591B491611109C09FB7F894A4
:103310008881209582238883EC912E230BC0623014
:1033200061F49FB7F8948881322F30958323888386
:10333000EC912E2B2C939FBF06C08FB7F894E88199
:103340002E2B28838FBFDF91CF9108951F93CF93AA
:10335000DF93282F30E0F901E056F74F8491F9010F
:10336000EC54F74FD491F901E853F74FC491CC23B3
:10337000C1F0162F81110E944119EC2FF0E0EE0FE1
:10338000FF1FEA51F74FA591B4919FB7F89411111F
:1033900004C08C91D095D82302C0EC91DE2BDC9335
:1033A0009FBFDF91CF911F910895CF93DF93282F77
:1033B00030E0F901E056F74F8491F901EC54F74FF2
:1033C000D491F901E853F74FC491CC2391F08111C6
:1033D0000E944119EC2FF0E0EE0FFF1FE452F74F6F
:1033E000A591B491EC91ED2381E090E021F480E08F
:1033F00002C080E090E0DF91CF9108954F925F92FC
:103400006F927F92AF92BF92CF92DF92EF92FF9234
:103410000F931F93CF93DF93CDB7DEB729013A0106
:103420009B01AC01241935094609570989899A89F4
:10343000AB89BC89BC01CD016A197B098C099D0946
:103440000E949A2FA80197012419350946095709A6
:103450000E94E02FCA01B9016A0D7B1D8C1D9D1DC4
:10346000DF91CF911F910F91FF90EF90DF90CF9060
:10347000BF90AF907F906F905F904F9008952F9284
:103480003F924F925F926F927F928F929F92AF92F4
:10349000BF92CF92DF92EF92FF920F931F93CF9341
:1034A000DF9300D000D000D0CDB7DEB72C017E83F3
:1034B0006D836A015901C801FC82EB824801841ABC
:1034C000950A97FE03C091948194910835012D814E
:1034D0003E81621A730A77FE03C071946194710889
:1034E000681479045CF43A2D2B2D5C01832F922F04
:1034F0003D812E81DE82CD82C32ED22EAD81BE8152
:10350000AA16BB065CF43C2D2D2D6C01832F922F47
:103510003D812E81BE82AD82A32EB22E85012D81EA
:103520003E81021B130B1C012C183D0837FE03C003
:10353000319421943108780117FF03C03FEFE31A5B
:10354000F30AF594E794C816D9062CF08FEF9FEF95
:103550009A83898304C0A1E0B0E0BA83A9832D8156
:103560003E81A216B30624F1D201ED91FC910484B0
:10357000F585E02D2B813C816814790424F44D817C
:103580005E81B60103C0A6016D817E81C2010995ED
:10359000E218F308F7FE06C029813A81C20ED31E55
:1035A000E00EF11E8D819E8101969E838D83D7CF83
:1035B00026960FB6F894DEBF0FBECDBFDF91CF9138
:1035C0001F910F91FF90EF90DF90CF90BF90AF9041
:1035D0009F908F907F906F905F904F903F902F9033
:1035E0000895DC01ED91FC910084F185E02D0994B2
:1035F0000F931F93DC01ED91FC91048CF58DE02D70
:1036000009951F910F9108950F931F93DC01ED9180
:10361000FC91068CF78DE02D09951F910F9108956F
:10362000EF92FF920F931F93DC01ED91FC9100A0AC
:10363000F1A1E02D09951F910F91FF90EF90089552
:1036400008958F929F92AF92BF92CF92DF92EF92A6
:10365000FF920F931F93CF93DF93EC015B014A011D
:1036600069017801E881F9810284F385E02D0995EB
:10367000C80CD91C860101501109E881F981048820
:10368000F589E02D9501A401B501CE010995E881E8
:10369000F9810688F789E02DCE01DF91CF911F9146
:1036A0000F91FF90EF90DF90CF90BF90AF909F90E1
:1036B0008F9009948F929F92AF92BF92CF92DF9298
:1036C000EF92FF920F931F93CF93DF93EC015B0177
:1036D0004A016901E881F9810284F385E02D0995A9
:1036E00095012C0D3D1D21503109E881F981048897
:1036F000F589E02D78018401A401B501CE01099579
:10370000E881F9810688F789E02DCE01DF91CF911C
:103710001F910F91FF90EF90DF90CF90BF90AF90EF
:103720009F908F9009944F925F926F927F928F92A9
:103730009F92AF92BF92CF92DF92EF92FF920F9340
:103740001F93CF93DF936C012B015A01390148017C
:10375000DC01ED91FC910284F385E02D0995E201F5
:10376000640C751CD601ED91FC91C615D7055CF46F
:103770000088F189E02D87019401A501BE01C601F1
:1037800009952196EFCF0688F789E02DC601DF91D4
:10379000CF911F910F91FF90EF90DF90CF90BF904E
:1037A000AF909F908F907F906F905F904F90099413
:1037B000EF92FF920F931F93DC011A960D911C91CB
:1037C0001B9718962D913C911997ED91FC9100A0B3
:1037D000F1A1E02D7B0140E050E060E070E0099550
:1037E0001F910F91FF90EF9008958F929F92AF924B
:1037F000BF92CF92DF92EF92FF920F931F93CF93DE
:10380000DF934C016B015A01E901DC01ED91FC9160
:103810006217730781F40417150724F48B2D5801E0
:10382000042F182F0A191B0998012F5F3F4F048C92
:10383000F58DE02D12C04017510709F526173707FF
:1038400024F48D2D6901C62FD82F9E012C193D0916
:103850002F5F3F4F068CF78DE02D8701A501B60144
:10386000C4010995DF91CF911F910F91FF90EF90C7
:10387000DF90CF90BF90AF909F908F90089502847B
:10388000F385E02D0995D401ED91FC910488F5892B
:10389000E02D9E01A501B601C4010995D401ED9169
:1038A000FC910688F789E02DC401DF91CF911F912B
:1038B0000F91FF90EF90DF90CF90BF90AF909F90CF
:1038C0008F9009946F927F928F929F92AF92BF9246
:1038D000CF92DF92EF92FF920F931F93CF93DF93DC
:1038E000EC014B015A0169013801E881F981028438
:1038F000F385E02D0995E881F9810288F389E02DAF
:1039000087019601A501B401CE010995A501460DD7
:10391000571D41505109E881F9810288F389E02D52
:103920009601B401CE010995E881F9810088F189F9
:10393000E02D9301A501B401CE010995C80CD91C55
:10394000B60161507109E881F9810088F189E02DA3
:103950009301A501CE010995E881F9810688F789CF
:10396000E02DCE01DF91CF911F910F91FF90EF904D
:10397000DF90CF90BF90AF909F908F907F906F908F
:1039800009940895FC016370668B8481958126817A
:103990003781613039F0633029F091878087338730
:1039A0002287089531872087938782870895FC01B5
:1039B000138212828BE691E0918380837583648306
:1039C000578346837187608753874287168A158697
:1039D00014861786168681E0858B848B2FEF3FEF48
:1039E000338B228B318B208B878B108E128E118E16
:1039F00008952F923F924F925F926F927F928F9293
:103A00009F92AF92BF92CF92DF92EF92FF920F936D
:103A10001F93CF93DF9300D000D000D0CDB7DEB797
:103A20009E838D834B013A016901802F21E030E0B4
:103A300029014C185D08222433242C183D08220C3F
:103A4000331CAA24A394B12C01E010E0982F9470A9
:103A50009983A82FA270AA83B82FB870BB838170F6
:103A60008C83C50101978C159D050CF0A7C057FCF0
:103A700008C091E0C91AD108A2E02A0E311C420CFC
:103A8000531C0E5F1F4F400E511EB981BB2311F115
:103A9000AD81BE81ED91FC9111970484F585E02DF7
:103AA0009701A601460D571DB4016A0D7B1DCD017E
:103AB0000995AD81BE81ED91FC9111970484F58546
:103AC000E02D9701A3014A0D5B1DB601680D791D1C
:103AD000CD010995BA81BB2311F1AD81BE81ED9174
:103AE000FC9111970484F585E02D9701A3014C19F1
:103AF0005D09B4016A0D7B1DCD010995AD81BE81C3
:103B0000ED91FC9111970484F585E02D9701A301B7
:103B10004A195B09B601680D791DCD010995BB8174
:103B2000BB2311F1AD81BE81ED91FC91119704840D
:103B3000F585E02D9701A3014A0D5B1DB4016C19B9
:103B40007D09CD010995AD81BE81ED91FC91119763
:103B50000484F585E02D9701A601460D571DB4019B
:103B60006A197B09CD010995BC81B11104C08FEFA1
:103B7000A81AB80A76CFAD81BE81ED91FC9111975C
:103B80000484F585E02D9701A3014A195B09B4016E
:103B90006C197D09CD010995AD81BE81ED91FC9136
:103BA00011970484F585E02D9701A3014C195D0957
:103BB000B4016A197B09CD010995D9CF26960FB6B4
:103BC000F894DEBF0FBECDBFDF91CF911F910F9153
:103BD000FF90EF90DF90CF90BF90AF909F908F902D
:103BE0007F906F905F904F903F902F9008952F920D
:103BF0003F924F925F926F927F928F929F92AF927D
:103C0000BF92CF92DF92EF92FF920F931F93CF93C9
:103C1000DF93CDB7DEB728970FB6F894DEBF0FBE9F
:103C2000CDBF5C017A8369832A01390148012017DD
:103C3000310734F43C832B8337FF0AC0C90105C028
:103C40001C830B8317FF04C0C80101969C838B83E0
:103C5000AB81BC81B595A795BC83AB838B819C81DF
:103C600098878F83E816F90614F4F886EF82D50159
:103C7000ED91FC910284F385E02DC50109958F81BA
:103C80009885880F991F9C838B837301E81AF90A22
:103C900029803A80AF81B8852A0E3B1ED501ED916F
:103CA000FC910288F389E02D86019701A201B10100
:103CB000C5010995C401840D951D9E838D83AC01BA
:103CC00041505109D501ED91FC910288F389E02D15
:103CD0009701B101C50109958B819C81881A990AC8
:103CE000AF81B8854A0E5B1ED501ED91FC9100882D
:103CF000F189E02D9401A20169817A81C5010995BC
:103D000089819A81680E791EB30161507109D501CC
:103D1000ED91FC910088F189E02D9401A201C5018B
:103D20000995760101E02F813885A201B101C50115
:103D30000E94F91C8F819885681A790A91E0691AA6
:103D4000710802E02F813885A201B301C5010E94EC
:103D5000F91C8D809E80AF81B8858A1A9B0AB1E0DC
:103D60008B1A910804E02F813885A401B301C501A5
:103D70000E94F91C08E02F813885A401B101C5011A
:103D80000E94F91CD501ED91FC910688F789E02D80
:103D9000C50128960FB6F894DEBF0FBECDBFDF91E8
:103DA000CF911F910F91FF90EF90DF90CF90BF9038
:103DB000AF909F908F907F906F905F904F903F90CB
:103DC0002F9009942F923F924F925F926F927F9221
:103DD0008F929F92AF92BF92CF92DF92EF92FF921B
:103DE0000F931F93CF93DF93CDB7DEB7AA970FB68C
:103DF000F894DEBF0FBECDBF9A8389837AA769A7E7
:103E00004A0119013801BA8AA98A0417150754F41E
:103E1000C416D506A4F45C834B8348015B013AA722
:103E200029A707C0C016D1060CF0AAC17C826B82FC
:103E30005101C814D90484F03601170113C0DC8283
:103E4000CB825701872D3A01802E982E832D29A4ED
:103E50003AA429A78AA706C0340129A43AA4460196
:103E6000E9A6FAA6A981BA81ED91FC911197028485
:103E7000F385E02DCD0109952B813C8182169306B7
:103E800081F549A55AA5241635065CF099A58AA5A1
:103E90004215530514F4922D832D29A43AA499A711
:103EA0008AA7A214B30444F069A57AA56A157B0514
:103EB00014F4BAA6A9A6510129A53AA52A193B09C5
:103EC0002F5F3F4FA981BA81ED91FC911197028834
:103ED000F389E02D09891A89A401B501CD0109955D
:103EE0002DC1C10129A53AA5821B930B9301281965
:103EF0003909650149A55AA5C41AD50A6B817C8187
:103F0000681979097A876987250142185308AB81B6
:103F1000BC81A619B709BC8BAB8B4B815C81641645
:103F2000750631F0B30161507109788F6F8B02C053
:103F3000788E6F8A54011D861E861F86188A1D8200
:103F40001E821F821886A6010D2C000C660B770BB3
:103F5000498F5A8F6B8F7C8FA901330F660B770BBC
:103F60004D8F5E8F6F8F78A329853A85032E000CC5
:103F7000440B550B29A33AA34BA35CA3AC01990FA7
:103F8000660B770B4DA35EA36FA378A76F89788D1F
:103F90006A157B050CF45AC06D817E818F819885EE
:103FA0002D8D3E8D4F8D58A10E94E02FE9A4FAA4DB
:103FB000E20EF31E6D857E858F85988929A13AA131
:103FC0004BA15CA10E94E02F89A59AA5280F391F5B
:103FD0004D815E816F8178858DA19EA1AFA1B8A52D
:103FE000480F591F6A1F7B1F4D835E836F8378873D
:103FF0004D855E856F857889898D9A8DAB8DBC8D59
:10400000480F591F6A1F7B1F4D875E876F87788B0C
:104010002E153F052CF49E2D8F2D7901292F382F39
:104020002E193F092F5F3F4FA981BA81ED91FC9175
:1040300011970288F389E02D09891A89A501B70132
:10404000CD010995BFEFAB1ABB0AA0CF9201052C99
:10405000000C440B550B2D833E834F835887D501AD
:10406000A619B70992010E94FF2F2B013C01D5012F
:10407000A819B90996010E94FF2F6B017C014B8999
:104080005C89052E000C660B770B4B8B5C8B6D8B64
:104090007E8B69857A85072E000C880B990B6987C2
:1040A0007A878B879C878B819C818A159B050CF472
:1040B00045C0C301B2012B893C894D895E890E94AC
:1040C000E02F4101820E931EC701B60129853A8572
:1040D0004B855C850E94E02FA9A5BAA52A0F3B1F3E
:1040E0004D815E816F817885440E551E661E771E58
:1040F000698D7A8D8B8D9C8DC60ED71EE81EF91E9C
:10410000281539052CF4982D892D4901292F382F90
:10411000281939092F5F3F4FA981BA81ED91FC9190
:1041200011970288F389E02D09891A89A501B40144
:10413000CD010995BFEFAB1ABB0AB5CFA981BA81F2
:10414000ED91FC9111970688F789E02DCD01AA9693
:104150000FB6F894DEBF0FBECDBFDF91CF911F9198
:104160000F91FF90EF90DF90CF90BF90AF909F9016
:104170008F907F906F905F904F903F902F90099419
:10418000DC82CB8257016ECE3F924F925F926F924C
:104190007F928F929F92AF92BF92CF92DF92EF92D7
:1041A000FF920F931F93CF93DF93CDB7DEB72A977C
:1041B0000FB6F894DEBF0FBECDBF5C017E836D836A
:1041C00058874F8329013701DC01ED91FC9102846E
:1041D000F385E02D0995C801079697FD07969C0188
:1041E00093E0359527959A95E1F73A832983812CB9
:1041F000912CE12CF12C312C8F8198858E0D9F1DF7
:104200009C838B83E614F7040CF03DC01A86198654
:10421000A985BA85A017B10774F5CD0187709927D4
:10422000892B11F0330C0EC0E985FA85F7FD37961E
:1042300083E0F595E7958A95E1F7E80DF91DE40D22
:10424000F51D349037FE11C0D501ED91FC91048429
:10425000F585E02D96014B815C816D817E8189859C
:104260009A85680F791FC5010995A985BA851196A8
:10427000BA87A987CDCFBFEFEB1AFB0A29813A8114
:10428000820E931EB9CFD501ED91FC910688F78976
:10429000E02DC5012A960FB6F894DEBF0FBECDBF44
:1042A000DF91CF911F910F91FF90EF90DF90CF9012
:1042B000BF90AF909F908F907F906F905F904F9046
:1042C0003F9009942F923F924F925F926F927F920C
:1042D0008F929F92AF92BF92CF92DF92EF92FF9216
:1042E0000F931F93CF93DF93CDB7DEB76B970FB6C6
:1042F000F894DEBF0FBECDBF9B8F8A8F2B015A83F0
:104300004983D22E198708874701AB82DC01599671
:104310002D913C915A972115310509F000C118964D
:104320008D919C911997681779070CF0E7C11A963F
:104330008D919C911B97481759070CF0DFC12C2CCD
:10434000312CFB0126E0C29EE00DF11D1124FD87FA
:10435000EC871E161F060CF0D1C14A2D50E05B877A
:104360004A8783E0440F551F8A95E1F75F874E87A0
:1043700089819A81840F951F181619060CF0BEC109
:1043800058968C91811104C06FEA6D1508F4D3948E
:10439000AA8DBB8DED91FC9111970284F385E02DE0
:1043A000CD010995B5E0DB9EC0011124EC2DF0E0B4
:1043B000F98BE88B92012B5F3F4F3B8B2A8B3201AD
:1043C0005D824C82AC01441955095D8B4C8B7B811D
:1043D000672F70E07F8B6E8B89819A810896998F09
:1043E000888FEC89FD89E60DF71DE650F74FD490D4
:1043F000A981BA81BF83AE835D01D0FE16C0AA8DAC
:10440000BB8DED91FC91B1E0CB1209C02B81213025
:1044100031F40484F585E02D2885398519C006849A
:10442000F785E02DE884F9841DC048855985481535
:10443000590511F1AA8DBB8DED91FC91B1E0CB1224
:104440000DC02B81213051F40484F585E02D9401B9
:10445000A501B3018A8D9B8D09950EC00684F78551
:10446000E02D74010A851B8591014E815F816C816D
:104470007D818A8D9B8D0995D6944E815F816E8951
:104480007F89460F571F5F834E837FEFA71AB70AB6
:10449000888D998DA816B90609F0AFCFAC81BD8182
:1044A000E889F989AE0FBF1FBD83AC83FFEF6F1A98
:1044B0007F0A2A893B896216730609F092CF4885E4
:1044C00059854815590509F4F7C0AA8DBB8DED91A2
:1044D000FC91B1E0CB1212C02B81213079F4B201F2
:1044E0006B5F7F4F0088F189E02D840128E030E088
:1044F00049815A818A8D9B8D0995DEC06C857D85A9
:10450000621973090684F785E02D74010E851F85F5
:10451000910149815A818A8D9B8D0995CDC0F90100
:104520003496E491DE1AF901329685919491B7E0C0
:10453000DB9E800D911D1124F90125913491398B59
:10454000288BFC0125903490FC01329674903196B2
:10455000A490329694903196B49031E03C1518F0C6
:104560004B81423068F0692D092C000C770B7D835C
:104570006C838B2D0B2C000C990B9F838E8304C0B6
:104580001F821E821D821C82AA8DBB8DED91FC9123
:1045900011970284F385E02DCD010995612CD12C72
:1045A000812CFB81EF2FF0E0FB87EA872C2D30E098
:1045B0003D872C8749815A814B0D511DB7FC5A9577
:1045C0005D8B4C8BB201690D711D97FC7A957F8BC9
:1045D0006E8B8A1408F070C0282D30E04E815F8108
:1045E000420F531FAA85BB85A49FC001A59F900DB4
:1045F000B49F900D1124E981FA81E80FF91FFF871C
:10460000EE87862D912C4C895D89420F531F5B8B61
:104610004A8B971408F04DC0BB24B394B80E877032
:1046200041F4C1010196E889F989E20DF31DD490A6
:104630001C01D7FE3AC051E0C51216C06B81613033
:1046400099F4AA8DBB8DED91FC9111970484F585A9
:10465000E02D288539854A895B896E897F89690DB6
:10466000711DCD01099521C08C819D81890D911D00
:10467000EC85FD858E9FB0018F9F700D9E9F700D04
:104680001124640D751DAA8DBB8DED91FC911197C0
:104690000684F785E02DE884F9840A851B852C853E
:1046A0003D854E855F85CD010995DD0C93948B2D5D
:1046B000B0CF670C83948DCFAA8DBB8DED91FC910B
:1046C00011970688F789E02DCD016B960FB6F89407
:1046D000DEBF0FBECDBFDF91CF911F910F91FF9035
:1046E000EF90DF90CF90BF90AF909F908F907F9092
:1046F0006F905F904F903F902F9009946B960FB6FC
:10470000F894DEBF0FBECDBFDF91CF911F910F9107
:10471000FF90EF90DF90CF90BF90AF909F908F90E1
:104720007F906F905F904F903F902F9008958F9261
:104730009F92AF92CF92EF92FF920F931F93CF93DE
:10474000DF93EC01262F898D9A8D009709F042C0E6
:104750006A3059F41D861C862D898E859F8538E028
:10476000239F800D911D112443C06D3009F4AAC010
:104770008F898823C9F03C898C859D8546E0349FCC
:10478000800D911D1124488559854817590764F4F7
:104790001D861C863D898E859F8548E0349F800D4F
:1047A000911D11249F878E87EA88FB8808891989C3
:1047B0004E855F856C857D85AD88CC88CE010E9455
:1047C00062212C898C859D8536E0239F800D911D6B
:1047D00011243EC06A3079F41D861C862D89FC01A7
:1047E0003896E4918E859F852E9F800D911D112412
:1047F0009F878E8767C06D3009F464C0FC013496D2
:104800003491631708F45EC03296E491E61708F419
:1048100059C0462F431B342FFC013296859094904B
:1048200047E0349F800C911C1124F401329634919E
:104830003196E491332311F0E1110DC0F401349667
:10484000E4912C898C859D85E29F800D911D11241A
:104850009D878C8737C0F401359644915F89552335
:1048600019F15C89E32FF0E0E40FF11D47FDFA95A3
:104870005E9FB0015F9F700D11244C855D85460FD2
:10488000571F688579856417750774F41D861C8623
:104890003D89FC013896E4918E859F853E9F800D71
:1048A000911D11249F878E87EA88FB8808891989C2
:1048B0004E855F856C857D85AD88CC88CE010E9454
:1048C0006221BCCF81E090E0DF91CF911F910F91E9
:1048D000FF90EF90CF90AF909F908F9008956111CF
:1048E00001C061E0FC01648B411101C041E0FC01A9
:1048F000458B0895462F0C946F24FC0177FDB9C0B9
:1049000080859185681779070CF0B3C057FDB1C059
:1049100082859385481759070CF00895868982305F
:1049200079F484819581DC01A61BB70BBD01615030
:10493000710986819781DC01A41BB50BAD010EC006
:10494000833009F084C064277527CA01862797271A
:104950006827792746815781481B590B41505109D7
:104960002130310531F048F12230310509F44AC0D7
:104970000895CA0157FD07969C01A3E03595279538
:10498000AA95E1F7A481B5812A9FC0012B9F900DC4
:104990003A9F900D1124680F791F078CF0A1E02D2C
:1049A000E60FF71F4770552781E090E001C0880FA0
:1049B0004A95EAF79081892B48C0CA0157FD0796AE
:1049C0009C0193E0359527959A95E1F7A481B581EF
:1049D0002A9FC0012B9F900D3A9F900D1124680FC4
:1049E000791F078CF0A1E02DE60FF71F47705527C0
:1049F00081E090E001C0880F4A95EAF780959081A8
:104A0000892323C0CA0157FD07969C0183E0359591
:104A100027958A95E1F7A481B5812A9FC0012B9F34
:104A2000900D3A9F900D1124680F791F078CF0A10B
:104A3000E02DE60FF71F4770552781E090E001C099
:104A4000880F4A95EAF790818927808308958130FD
:104A500009F086CF642775274627572764277527CF
:104A600084819581DC01A61BB70BBD0161507109E2
:104A700077CF08952091D902222399F04FB7F89467
:104A80002091D902213059F42DB32093D7023DB3A0
:104A90002091D802209523232DBB4FBF02C0409305
:104AA000D7028CBD9DBD08958EBD00000DB407FEDC
:104AB000FDCF8EB508958091D902882361F09FB70C
:104AC000F8942091D9028091D702213019F48DBB3E
:104AD0009FBF08958FBF08951F93CF93DF93EC017D
:104AE000162F40E450E060E870E00E94D71C87E990
:104AF00091E0998388831C8E1B8E8BED92E09E8FB4
:104B00008D8F18A21F8E8FEF8CA38DA38EA38FA3E2
:104B100018A780E58EAF1FAEDF91CF911F9108954A
:104B200027E931E0FC0131832083878D90A1009734
:104B300011F00C94DA3008951F93CF93DF93FC01AA
:104B4000858D968D009719F1162FEF0161A1062E24
:104B5000000C770B0E94992C8D8D9E8DDC01ED91C0
:104B6000FC910190F081E02D60E009958D8D9E8D86
:104B7000DC01ED91FC910190F081E02D612F099510
:104B80008D8D9E8DDF91CF911F910C94AE2CA5A59C
:104B9000B6A59C9183A9809589238C93838D948D50
:104BA000892B31F0862FDF91CF911F910C945425E2
:104BB00028E030E080E8A1A5B2A591A9462F4823BE
:104BC00019F04C91942B03C04C91909594239C9395
:104BD000A3A5B4A54C9192A9942B9C93A3A5B4A58D
:104BE0004C9192A9909594239C93869521503109DC
:104BF00011F7DF91CF911F9108951F93CF93DF930A
:104C0000EC01162F8D8D9E8D009739F04DA95EA970
:104C10006FA978AD0E948B2C0FC08B8D9C8D892B3A
:104C200021F08EAD9FAD0E943A25EFA5F8A99081A5
:104C30008CA9809589238083111102C066EA01C086
:104C400067EACE010E949C258D8D9E8D009749F0CC
:104C500049AD5AAD6BAD7CADDF91CF911F910C94F6
:104C60008B2CEFA5F8A990818CA9892B80838B8D43
:104C70009C8D892B29F0DF91CF911F910C945B259E
:104C8000DF91CF911F910895BF92CF92DF92EF9263
:104C9000FF920F931F93CF93DF93EC01B62E072F54
:104CA000142F8D8D9E8D009709F452C069A1062E98
:104CB000000C770B0E94992C8D8D9E8DDC01ED915F
:104CC000FC910190F081E02D60E00995CB2CD02E75
:104CD000EE24E394F12C8D8D9E8D112371F1B0E2C1
:104CE000EB16F104B8F00E94AE2C69A1062E000C60
:104CF000770B8D8D9E8D0E94992C8D8D9E8DDC0164
:104D0000ED91FC910190F081E02D60E00995EE2499
:104D1000E394F12C8D8D9E8DF6016491DC01ED9173
:104D2000FC910190F081E02D0995BFEFEB1AFB0A91
:104D30001150F60131966F01CECFDF91CF911F91C7
:104D40000F91FF90EF90DF90CF90BF900C94AE2C1E
:104D5000EDA5FEA590818BA9809589238083E62E01
:104D6000F72E112379F1F70184912B8D3C8D232BA4
:104D700039F00E9454251150C70101967C01F1CFF2
:104D800028E030E040E8E9A5FAA599A9582F542376
:104D900019F05081952B03C05081909595239083F5
:104DA000EBA5FCA550819AA9952B9083EBA5FCA5BA
:104DB00050819AA990959523908346952150310969
:104DC00011F7D9CFDF91CF911F910F91FF90EF9005
:104DD000DF90CF90BF900895FC01868197819C0160
:104DE000295F3F4F37FF02C0295F3F4F83E0359572
:104DF00027958A95E1F784819581289FA001299FB5
:104E0000500D389F500D112460E070E0878D90A107
:104E10000C9471318F929F92AF92BF92CF92DF929A
:104E2000EF92FF920F931F93CF93DF93EC01862EA7
:104E3000B42EA22E902E8F8D98A1892BE9F42E816D
:104E40003F81C901079697FD079623E095958795C1
:104E50002A95E1F72C813D81AC01429FC001439F1F
:104E6000900D529F900D11240E94423098A38F8F75
:104E7000892B11F480E092C1CE010E94EC268E8134
:104E80009F816C817D8181329105E4F0AC014054B9
:104E9000510957FF02C04F5F5F4F559547956255C7
:104EA000710977FF02C06F5F7F4F75956795CC24BE
:104EB000C394D12C80E4E82EF12C02E510E021E02F
:104EC00030E11BC0AC014052510957FF02C04F5F97
:104ED0005F4F559547956357710977FF02C06F5F24
:104EE0007F4F75956795CC24C394D12CA0E2EA2E10
:104EF000F12C03E710E021E23EE0CE010E94C42045
:104F00008AA28D8D9E8D009799F0B11007C02E81D9
:104F10003F812032310521F42CE303C02B2D01C049
:104F20002DE329A3992009F436C10E94792C79C078
:104F300061E08EA10E946A1961E08FA10E946A1946
:104F40008EA1082E000C990BFC01E853F74FE49159
:104F5000F0E0EE0FFF1FEA51F74F259134913EA785
:104F60002DA7FC01EC54F74FE491EBAB8FA1082E79
:104F7000000C990BFC01E853F74FE491F0E0EE0FC1
:104F8000FF1FEA51F74FA591B491B8ABAFA7FC0151
:104F9000EC54F74FE491ECAB8C91E82BEC938B8DB8
:104FA0009C8D892B31F0992009F43BC00E94752B10
:104FB00038C061E08CA10E946A1961E08DA10E9455
:104FC0006A198CA1082E000C990BFC01E853F74FCD
:104FD000E491F0E0EE0FFF1FEA51F74F2591349175
:104FE0003AA729A7FC01EC54F74FE491E9AB8DA156
:104FF000082E000C990BFC01E853F74FE491F0E008
:10500000EE0FFF1FEA51F74FA591B491BCA7ABA7D4
:10501000FC01EC54F74FE491EAAB8C91E095E82366
:10502000EC93AA20F1F088A587FD1BC061E00E94E7
:105030006A1961E088A50E94A61961E070E080E02D
:1050400090E00E94A21860E088A50E94A6196AE07C
:1050500070E080E090E00E94A21861E088A50E94C4
:10506000A6198D8D9E8D009739F04DA95EA96FA967
:1050700078AD0E948B2C0FC08B8D9C8D892B21F0DD
:105080008EAD9FAD0E943A25EFA5F8A990818CA91D
:1050900080958923808344E06DE17EE0CE010E940B
:1050A00044266E816150CE010E949C2544E069E156
:1050B0007EE0CE010E9444268AA1813011F460E195
:1050C00001C064E1CE010E949C2544E065E17EE0E0
:1050D000CE010E9444268FE88DAF8C819D8180385F
:1050E000910571F48E819F8180349105B9F48AA174
:1050F000813011F48FE901C08FEC8DAF12E10FC048
:105100008036910559F48E819F81409739F48AA1A8
:10511000813011F480E101C08FEA8DAF12E06AEDB9
:10512000CE010E949C25612FCE010E949C2561E842
:10513000CE010E949C256DADCE010E949C2569ED9B
:10514000CE010E949C258AA1813011F462E201C047
:1051500061EFCE010E949C2546E06FE07EE0CE012B
:105160000E9444268D8D9E8D009739F049AD5AAD31
:105170006BAD7CAD0E948B2C0CC0EFA5F8A9908183
:105180008CA9892B80838B8D9C8D892B11F00E949B
:105190005B2581E003C0A11046CF67CFDF91CF919F
:1051A0001F910F91FF90EF90DF90CF90BF90AF9045
:1051B0009F908F9008950F931F93CF93DF93DC01FF
:1051C00057FD64C016968D919C9117974817590703
:1051D0000CF05CC077FF04C0260F371F60E070E062
:1051E0001496CD91DC911597CB01820F931FC817B0
:1051F000D9071CF49E01261B370B121613060CF060
:1052000045C0FA0157FD3796CF01E3E095958795A4
:10521000EA95E1F78C9FF0018D9FF00D9C9FF00DBA
:1052200011246E0F7F1F5F96ED91FC919097E60F12
:10523000F71F4770552781E090E001C0880F4A951D
:10524000EAF7482F0130110539F078F002301105E6
:10525000E9F42E0F3F1F13C02E0F3F1FE217F30775
:10526000A9F08081842B8193F9CF80952E0F3F1F69
:10527000E217F30759F0908198239193F9CFE21741
:10528000F30721F0808184278193F9CFDF91CF91BB
:105290001F910F910895EF92FF920F931F93CF9359
:1052A000DF93EC0177FDA5C0EC80FD806E157F05D6
:1052B0000CF09FC057FF04C0240F351F40E050E0A2
:1052C0008E819F81FA01E20FF31F8E179F071CF456
:1052D0009C01241B350B121613060CF08AC0922F6A
:1052E000842F8695869586958E9DD0018F9DB00DD5
:1052F00011246A0F7B1FAF8DB8A1A60FB71F47708F
:10530000B1F188E0841B482F682F70E0FB01E95F52
:10531000F14FE491281798F4621B71092FEF30E0E8
:1053200002C0359527956A95E2F7E2230130110511
:1053300049F078F00230110509F05BC00EC0013071
:10534000110519F48C91E82B0AC00130110508F001
:1053500049C0E0958C91E82302C08C91E827EC933A
:10536000941708F446C02C813D81A20FB31FE92F8A
:10537000E41BE830F8F00230110561F48E2F9C91A7
:1053800090959C932C813D81A20FB31F885088304B
:10539000B0F70FC081E00115110509F480E0819597
:1053A0009E2F8C932C813D81A20FB31F9850983073
:1053B000C0F7E770EE23E9F0F0E0E150F24FE4913E
:1053C0000130110539F048F00230110591F48C914B
:1053D000E82706C08C91E82B03C0E0958C91E82368
:1053E000EC9307C00230110509F4B7CFAE0DBF1D15
:1053F000BECFDF91CF911F910F91FF90EF90089555
:105400000F931F93DC015696EC915697E23061F0B2
:10541000E33009F1E13081F51496ED91FC91159797
:10542000E41BF50B319723C0DC011496ED91FC9140
:105430001597DF01A61BB70BBD01DC011696ED9198
:10544000FC911797DF01A41BB50BAD014150510929
:10545000621B730B11C0FA01DC0116964D915C9131
:105460001797DA01A61BB70BBD01621B730BAB01CB
:10547000BF010E944B2902C00E94DB281F910F919F
:1054800008950F931F93DC015696EC915697E230E6
:1054900069F0E33011F1E13089F51496ED91FC915A
:1054A0001597E41BF50BE21BF30B23C0DC011496EC
:1054B000ED91FC911597DF01A61BB70BBD01615063
:1054C0007109DC011696ED91FC911797DF01A41B81
:1054D000B50BAD01421B530B11C0FA01DC0116964E
:1054E0004D915C911797DA01A61BB70BBD01615076
:1054F0007109AB01BF010E94DB2802C00E944B2949
:105500001F910F910895CF92DF92EF92FF920F9328
:105510001F93CF93DF93EC018D8D9E8D009739F013
:105520004DA95EA96FA978AD0E948B2C0FC08B8D01
:105530009C8D892B21F08EAD9FAD0E943A25EFA561
:10554000F8A990818CA980958923808345E06AEF32
:105550007DE0CE010E9444266C816150CE010E9404
:105560009C252E813F81C901079697FD079623E070
:10557000959587952A95E1F72C813D81829F700151
:10558000839FF00C929FF00C11240F8D18A18D8D2C
:105590009E8DE00EF11E009709F443C069A1062E0E
:1055A000000C770B0E94992C8D8D9E8DDC01ED9166
:1055B000FC910190F081E02D60E40995680101E023
:1055C00010E08D8D9E8DEC14FD0441F1003211052B
:1055D000B0F00E94AE2C69A1062E000C770B8D8DC9
:1055E0009E8D0E94992C8D8D9E8DDC01ED91FC91FC
:1055F0000190F081E02D60E4099501E010E08D8DCF
:105600009E8DF60161916F01DC01ED91FC9101909D
:10561000F081E02D09950F5F1F4FD3CF0E94AE2C74
:1056200035C0EDA5FEA590818BA9892B80830E1531
:105630001F0561F1F80181918F012B8D3C8D232B8A
:1056400019F00E945425F3CF28E030E040E8E9A5A6
:10565000FAA599A9582F542319F05081952B03C00E
:105660005081909595239083EBA5FCA550819AA934
:10567000952B9083EBA5FCA550819AA99095952335
:10568000908346952150310911F7D1CF8D8D9E8D94
:10569000009771F049AD5AAD6BAD7CADDF91CF9104
:1056A0001F910F91FF90EF90DF90CF900C948B2C77
:1056B000EFA5F8A990818CA9892B80838B8D9C8D77
:1056C000892B51F0DF91CF911F910F91FF90EF90B7
:1056D000DF90CF900C945B25DF91CF911F910F91BC
:1056E000FF90EF90DF90CF900895CF93CFB7F894CD
:1056F0008091DA02811127C0E2EDF8E08491EEEBAF
:10570000F8E09491E82FF0E0EE0FFF1FE051F74F23
:10571000A591B491EC91E92321F461E08AE00E9423
:10572000A61961E08AE00E946A198CB580618CBD7F
:105730008CB580648CBD61E08DE00E946A1961E0E7
:105740008BE00E946A198091DA028F5F8093DA02FF
:10575000CFBFCF91089580910F0390E02091100367
:10576000821B910908959091100380910F0398175F
:1057700050F4E92FF0E0EF5EFC4F208130E09F5FB6
:105780009093100302C02FEF3FEFC9010895E091FD
:10579000100380910F03E81730F4F0E0EF5EFC4F48
:1057A000808190E008958FEF9FEF08950895CF9343
:1057B000DF93EC01E091E702F091E8023097F1F01D
:1057C0009091100380910F039817C0F090E0292F5B
:1057D00030E02617370754F4DE01A20FB31F4C91B7
:1057E000D901AF5EBC4F4C939F5FF1CF1092100375
:1057F00060930F03CB01DF91CF910994DF91CF919B
:105800000895E091E902F091EA02309729F01092B0
:10581000ED021092EC0209940895CF92DF92EF927C
:10582000FF920F931F93CF93DF937C01CB018A01EB
:105830002091EB02222389F0EB016B01C40ED51EEF
:10584000CC15DD0569F06991D701ED91FC910190CE
:10585000F081E02DC7010995F3CF642F0E94F72C4A
:10586000C801DF91CF911F910F91FF90EF90DF90D2
:10587000CF900895CF93DF931F92CDB7DEB76983A2
:105880002091EB022223D1F02091EC02203240F053
:1058900021E030E0FC013383228380E090E015C0FA
:1058A0008091ED02E82FF0E0E251FD4F9981908365
:1058B0008F5F8093ED028093EC0205C061E0CE0122
:1058C00001960E94F72C81E090E00F90DF91CF913C
:1058D0000895FC011382128288EE93E0A0E0B0E00C
:1058E00084839583A683B78383EC91E0918380833F
:1058F00008951092100310920F031092ED0210926F
:10590000EC020E94B82C81E09CE20E94242D87EDDD
:105910009BE20C941F2DCB01BA010C94E32C81E087
:105920008093EB0260930E031092ED021092EC0252
:1059300008950C948F2C0F93062F21E04091EC02D8
:105940006EEE72E080910E030E94452D1092ED02E2
:105950001092EC021092EB020F91089561E00C940A
:105960009B2C8BED92E00C94692C0E94633108957E
:105970001092A40381E08093A2031092A10361E03E
:1059800082E10E94A61961E083E10E94A619E9EB79
:10599000F0E080818E7F808380818D7F808388E4AA
:1059A0008093B80085E48093BC000895ECEBF0E0B0
:1059B00080818A7B808360E082E10E94A61960E09A
:1059C00083E10C94A6199B01AC0160E074E284EFC2
:1059D00090E00E94BE2FDA01C9014097A109B109E8
:1059E000B695A795979587958093B80008954091AF
:1059F0005303262F30E0240F311D21323105DCF412
:105A00002091A4032430C9F4FC0180E090E08617C3
:105A100058F4309153032191DC01AB5ABC4FA30FD2
:105A2000B11D2C930196F3CF80915303680F6093BF
:105A3000530380E0089581E0089582E008959093F3
:105A4000980380939703089590939A038093990302
:105A5000089585EC8093BC001092A4030895CF9321
:105A6000DF9391E090939C03882361F0C091B8008C
:105A7000D091BA000E94D62C0E94B82CD093BA00C4
:105A8000C093B800DF91CF9108954F925F926F92CB
:105A90007F928F929F92AF92BF92CF92DF92EF92BE
:105AA000FF920F931F93CF93DF93413208F0C6C04C
:105AB000122FF42ED72EE62ED82F0E947D184B01E0
:105AC0005C01C091A403CC2311F180919D039091BE
:105AD0009E03A0919F03B091A003892B8A2B8B2B4F
